:020000040800F2
:1000000030F001204D340008CD460008E5460008D8
:100010003D47000895470008AD4700080000000074
:100020000000000000000000000000007D890008C2
:10003000C5470008000000000D8A00086D8A00080E
:10004000AD340008AD340008AD340008AD3400080C
:10005000AD340008AD340008AD340008AD340008FC
:10006000AD340008AD340008AD340008AD340008EC
:10007000AD340008AD340008AD340008AD340008DC
:10008000AD340008AD340008AD340008AD340008CC
:10009000AD340008AD340008AD3400086D7A0008B6
:1000A000AD340008AD340008AD340008AD340008AC
:1000B000313B0008FD470008AD340008AD340008AE
:1000C000AD340008AD340008AD340008AD3400088C
:1000D000AD340008AD340008AD340008AD3400087C
:1000E000AD340008453D0008AD340008AD340008CB
:1000F000AD340008AD340008AD340008AD3400085C
:10010000AD34000899CF0008AD340008AD340008C4
:10011000AD340008AD340008AD340008AD3400083B
:10012000AD340008AD340008AD340008AD3400082B
:10013000AD340008AD340008AD340008AD3400081B
:10014000AD340008AD340008AD340008DD470008C8
:10015000AD340008AD340008AD340008AD340008FB
:10016000AD340008AD340008AD340008AD340008EB
:10017000AD340008AD340008AD340008AD340008DB
:10018000AD340008AD340008F0B583B008F006FCCB
:10019000002401262546F02703F0A6F901960095D4
:1001A0003B4622462946204606F066FFC4F5A0706D
:1001B000019600953B460246294606F05DFFC4F1D4
:1001C000A00003F06DFC304603F0EAFC0134A02CE3
:1001D000E2D1044A538B9BB243F48073538303F000
:1001E00083F9FCE700040240134B00E013461A6851
:1001F0008242FBD310B459685C18A04203D1406816
:10020000014459601846446801198A420CD10A4ACF
:100210009268914206D04A68144444601A68126891
:10022000026002E0016000E00260984218BF1860BE
:100230005DF8044B704700BF400E0020F8B504463F
:1002400004F098FF484B9B6823BB484A12F0070F05
:1002500007D0D11D21F0070102F548435B1A0A4679
:1002600001E04FF4484340480260002141601344DC
:10027000083B23F00703836059601960991A5160A5
:1002800013603B4BC3F8641DC3F8681D4FF0004278
:10029000C3F86C2D364BD3F86C7D27425BD1002C14
:1002A0005CD004F1080313F0070F1CBF23F0070311
:1002B0000833002B4FD02E4AD2F8686DB3424AD88B
:1002C000294A146801E022460C4661688B4202D933
:1002D00021680029F7D1244989688C423BD01568F0
:1002E000216811606268D21A102A10D9E01810F043
:1002F000070F08D04FF0F00383F31188BFF36F8F1F
:10030000BFF34F8FFEE742606360FFF76DFF6268E7
:10031000B31A1749C1F8683DD1F8641D8B423CBF40
:100320001349C1F8643D08353A43626000232360F5
:1003300004F0B4FF1DB904F0C9F8002511E015F070
:10034000070F0ED04FF0F00383F31188BFF36F8FC8
:10035000BFF34F8FFEE704F0A1FFECE704F09EFF30
:10036000E9E72846F8BD00BF400E00204C0E0020F3
:10037000E8C8002090B310B5044650F8043C184A71
:10038000D2F86C2D134208D14FF0F00383F311889B
:10039000BFF36F8FBFF34F8FFEE750F8081C41B1DA
:1003A0004FF0F00383F31188BFF36F8FBFF34F8FCC
:1003B000FEE723EA020340F8043C04F0DBFE084AAF
:1003C00054F8041CD2F8683D0B44C2F8683DA4F10F
:1003D0000800FFF709FF04F061FF10BD704700BF80
:1003E000E8C80020C3684FF0FF325A60C3686FF05E
:1003F00080425A61C368014A9A61704700080080D0
:1004000070B582B0054600230193032007F06AFC13
:10041000EB681A690192134C032607E0304607F097
:1004200061FCEB681A690192013C18D0019A002A1C
:10043000F4DA019A42F001020192019A1A61E96824
:100440000B690193074B03E00A690192013B03D05A
:10045000019A12F0010FF7D1032007F043FC0020AE
:1004600002B070BD400D030010B4C4786CB9033302
:1004700000EB8200D0F8D0409B1006D0002251F84B
:10048000040B206001329342F9D100205DF8044B47
:10049000704700BF70B40332D0F8D060921009D01A
:1004A0000C460023356844F8045B01339A42F9D1C5
:1004B00001EB8201084670BC704700BF70B4002396
:1004C000C370012383704023838001290DD1012350
:1004D000C37208230370042343704FF4A073C380D6
:1004E000022303724FF0A0460CE051B90023C372FF
:1004F0000C230370062343704FF4A063C380234E84
:1005000000E00026C66006F500630361457895B1FA
:1005100006F5106300F1140100F1500206EB4515D9
:1005200005F5106541F8043F03F5007442F8044FE7
:100530002033AB42F6D106F58063436106F588634C
:10054000C0F8CC300178D1B106F5A06300F18C027F
:1005500006EB411404F5A06442F8043F2033A342A3
:10056000FAD106F5805300F1CC0206EB013101F51A
:10057000805142F8043F03F580539942F9D106F5C2
:100580006066C0F80C61002070BC70470000044039
:1005900038B50446037A012B22D10025C268936B3B
:1005A0006FF31043417A09B143F480139363E26817
:1005B000D3686FF386136FF396536FF351436FF362
:1005C000D343D3602046FFF71BFFE378012B25D1EF
:1005D000052363F3440545F02005E3689D6012E0C0
:1005E000C268D36843F04003D360FFF709FF637A22
:1005F000002B0CBF4FF434134FF47413E268936371
:10060000142007F075FBE378012B07D1E3689D68A0
:10061000052262F3440545F020059D60002038BDA9
:10062000C268936843F0010393600020704700BFE5
:10063000C268936823F0010393600020704700BFF5
:1006400000B583B000230193019B43F02003019385
:10065000019B61F38A130193C368019A1A61C1680F
:100660000B690193084B03E00A690192013B03D037
:10067000019A12F0200FF7D1032007F033FB00207E
:1006800003B05DF804FB00BF400D030000B583B06C
:1006900000230193019B43F010030193C368019A67
:1006A0001A61C1680B690193084B03E00A69019262
:1006B000013B03D0019A12F0100FF7D1032007F08D
:1006C00011FB002003B05DF804FB00BF400D0300E8
:1006D00008B5C268D3686FF35D736FF39E73012929
:1006E00002D143F0005302E009B943F08043D360E4
:1006F000322007F0FDFA002008BD00BFC3685B6927
:1007000013F0010F0CBF012000207047C368586927
:1007100000F00100704700BFC36858699B6918402A
:10072000704700BF4269136861F3010313607047AB
:10073000D0F8CC30186820F02E0070474369586913
:10074000704700BF38B50546FFF7F2FF40F48074EC
:10075000D5F8CC301C600A2007F0CAFA6FF30824E1
:10076000D5F8CC301C60142007F0C2FA012038BD47
:1007700086B000EB8101D1F89020136843F040432C
:1007800013F4802F07D1C168C96AC1F3074149B981
:100790006FF3DF7306E041690969C1F3074109B9E5
:1007A0006FF3DF731360002006B0704710B40022AF
:1007B0004FF00043012464F3DC4300EB8101D1F8E6
:1007C00090000361D1F890100B6843F0004362F38E
:1007D0009E730B6010465DF8044B70470269136806
:1007E00061F301031360704738B505460024C36800
:1007F0009C61C3686FF080425A61FFF7F3FDEB78AC
:10080000A34208BF102444F4701444F4605444F02C
:100810000804EA6893691C439461002038BD00BF56
:1008200070B504460025D0F80C311D6002691368CC
:1008300065F3CC231360C37A012B20D12E4603210C
:10084000FFF7CCFFE26880235362C0F2400563F3F8
:100850000F05E2689562C02262F30F0663F31F463C
:10086000E368C3F804614FF4A07363F30F066FF3FA
:100870001F46E368C3F80861E368C3F80C61102100
:100880002046FFF7DDFE2046FFF700FF2269002328
:1008900013612269536122694FF0FF31916122692E
:1008A000D3616378002B38D004F1140200210E4686
:1008B000FF2552F8043F1B68C3F3076323F07F034F
:1008C000DBB2002B0CBF00204FF090401368186083
:1008D00013681E6113689D60013163788B42E8D80C
:1008E000DBB104F1500200210E46FF2552F8043F0F
:1008F0001B68C3F3076323F07F03DBB2002B0CBF3D
:1009000000204FF090401368186013681E61136850
:100910009D60013163788B42E8D82269136943F402
:1009200080731361E378012B09D10323402262F322
:100930008A0343F4803362F35943226913632046E8
:10094000FFF752FF002070BD03699B68C3F34103AA
:10095000022B04D001D8012B03D1022070470120C3
:1009600070470320704700BF03699B688269116864
:10097000C3F34103022B12BF6FF30A01032363F396
:100980000A0111600269536843F4807353600020C8
:10099000704700BF30B400244B78012B08D10D788C
:1009A00000EB85039A690123AB4063F30F0407E072
:1009B0000D7800EB85035A6D0123AB4063F31F44B0
:1009C000136813F4004F0DD18D6865F30A03CD78D9
:1009D00065F39343C98861F3995343F0805343F41B
:1009E000004313600269D3692343D361002030BC04
:1009F000704700BF30B4002214464B78012B08D159
:100A0000097800EB81039D6901238B4063F30F0498
:100A100007E00B7800EB83014D6D0121994061F3F4
:100A20001F446FF3CF322A600269D36923EA0403BB
:100A3000D361002030BC704770B54B78012B52D188
:100A40000B7800EB83039B691A681C694B692BB90F
:100A50006FF31204012363F3DC440DE063F312042B
:100A60008D682B44013BB3FBF5F363F3DC44CB7897
:100A7000012B08BF63F35E740B7800EB83039B6963
:100A80001C61C378012B06D10B7800EB83039B69B3
:100A90000C695C610BE0CB78012B0BD04B6993B1F7
:100AA00005696C6B0E780123B34023436B63CB78ED
:100AB000012B08D103699B6813F4807F0CBF42F0BF
:100AC000005242F0805242F004420B7800EB830364
:100AD0009B691A60CB78012B40D18B8A0A78C96850
:100AE000FFF7C2FC3AE00B7800EB83035B6D1A68FA
:100AF0001C694B6933B98B6863F31204012363F3F8
:100B0000DC440CE08D682B44013BB3FBF5F3C3F3ED
:100B1000090363F3DC4405FB03F363F312040B786E
:100B200000EB83035B6D1C61C378012B05D10B784F
:100B300000EB83035B6D0C695C61CB78012B06D104
:100B40004B7913B142F0005201E042F0805242F082
:100B500004420B7800EB8300436D1A60002070BDE7
:100B600030B482B04B78012B47D182691368146985
:100B700000944C696CB99DF800406FF306048DF841
:100B800000409DF80240012565F3C4048DF8024041
:100B900017E08D68AC4207D94D619DF8004065F3C0
:100BA00006048DF8004005E09DF8005064F306054A
:100BB0008DF800509DF80240012565F3C4048DF8BE
:100BC0000240009C1461C478012C05D10C7800EB24
:100BD0008404A4690D69656143F004431360C3781C
:100BE000002B47D14B69002B44D00069426B097838
:100BF00001238B40134343633CE00B7800EB8303FA
:100C00005A6D1368126900924A6972B98C689DF82E
:100C1000002064F306028DF800209DF802200124D4
:100C200064F3C4028DF802200EE08C684C619DF8DC
:100C3000002064F306028DF800209DF802200124B4
:100C400064F3C4028DF802200A7800EB8202526D30
:100C5000009C1461C278012A05D10A7800EB820257
:100C6000526D0C69546143F004430A7800EB820032
:100C7000426D1360002002B030BC70474B78012BEE
:100C80000CD10B7800EB830082691368002BB8BF8E
:100C900043F0804343F40013136007E00B7800EB4C
:100CA0008300426D136843F4001313600020704703
:100CB0004B78012B0B7800EB83000CBF8069406DF3
:100CC00002686FF35552CB78023BDBB2012B98BF21
:100CD00042F0805202600020704700BF03699869AB
:100CE000DB691840000C704700EB81014B6D9A687E
:100CF000036958691040704703699869DB691840B7
:100D000080B2704782B000230093C0238DF8033077
:100D10004FF00003012262F3C4038DF80230182360
:100D20008DF80030436D009A1A61C378012B08D109
:100D3000436D00F2CC525A61436D1A684FF0802225
:100D40001A6002B0704700BF836801390D2914D8BA
:100D5000DFE801F0090B0D0F131313111607071627
:100D60001616012070475868704798687047D86811
:100D7000704718697047986970474FF0FF307047A7
:100D8000002070470129024818BF0020704700BFAB
:100D9000E4860308826800230B804B80D368013B04
:100DA0008B801369013BCB80704700BF093907294D
:100DB00011D8DFE801F012040608100A0C0E0848EA
:100DC0007047084870470848704708487047084807
:100DD000704708487047002070470748704700BFB9
:100DE000CD0E0008950E00087D0E00082D0E00089F
:100DF0001D0E0008FD0D0008E50E000800B583B0CB
:100E0000002301938DF8041000926A460421806942
:100E100002F0B6F803B05DF804FB00BF08B500228D
:100E20000621806902F0ACF808BD00BF08B50022B9
:100E30000521806902F0A4F808BD00BF00B583B0A9
:100E4000009101926A460321806902F099F803B08B
:100E50005DF804FB38B50446836853B91C2020F0C4
:100E600099F80546A06023699B68984719F06AFCC9
:100E7000A861A068B0FA80F0400938BD38B50546D1
:100E8000FFF7E8FF044600220121A86902F078F884
:100E9000204338BD70B582B005460C461646002387
:100EA00000930193FFF7D6FFAB686BB15A69002A34
:100EB00008BF22465A615C609E60009401966A46B3
:100EC0000721A86902F05CF802B070BD70B5054654
:100ED0000C461646FFF7BEFFAB6813B1DC601E611F
:100EE0005C6170BD30B583B004460D4600230193AC
:100EF000FFF7B0FFA3683BB11D6002AA42F8045D92
:100F00000221A06902F03CF803B030BD10B50846DC
:100F100011461A0202F478045A0102F47C42224378
:100F2000DB00DBB21A4305F0E5FF02F0DDFA10BD8D
:100F300008B5084611461346024605F0FFFF2E226B
:100F40004FF000431A70054A13781378137811781C
:100F500010781B0243EA0143184308BD00000180DA
:100F6000F8B504460D461646FFF7E2FF074623692B
:100F70009B68984787EA0003324629462046FFF7D8
:100F8000C5FFF8BD2DE9F0470746894615461E46C0
:100F9000DDF820A0194B1B681A7C12F0010F05D157
:100FA000554528DCDB6BD3F800801FE055450CDD90
:100FB000BDE8F0872A4621463846FFF7D1FF0134C5
:100FC000A642F7DA0135AA4515DBB145D8BF4C4634
:100FD000F0DDF7E743462A4621463846FFF796FFFD
:100FE0000134A642F6DA0135AA4504DBB145D8BF83
:100FF0004C46EFDDF7E7BDE8F08700BF9402002024
:1010000000B583B000930B46FFF7BCFF03B05DF85B
:1010100004FB00BF00B583B00092FFF7B3FF03B03D
:101020005DF804FB2DE9F04F87B000900191029329
:101030001099DDF84CA0DDF854B0119B013B1F2B3B
:1010400000F2C082DFE813F034003000BE022C0052
:10105000BE02BE02BE022800BE02BE02BE02BE0228
:10106000BE02BE02BE022400BE02BE02BE02BE021C
:10107000BE02BE02BE02BE02BE02BE02BE02BE0270
:10108000BE02BE02BE022000002900F37D8299E26A
:10109000002900F35A8295E2002900F3EF8191E2E2
:1010A000002900F33E818DE2002900F38F8089E260
:1010B000002940F3878203928B1805938027CDF88F
:1010C0004CA0CDF854B0039B0493159BD3F8049027
:1010D000019B149A9C18B14B1B681B7C03F0030303
:1010E000032B67D8DFE803F0023E243E159BD3F8BC
:1010F00000B0029E149DDDF84CA02146049C01F135
:1011000001089AF8002047FA05F31340002B0CBFA2
:101110005B464B4622460098FFF7F8FE0135082D46
:1011200004BF0AF1010A00254146013EE7D141E032
:10113000029E149DDDF84C8098F8002047FA05F3D4
:101140001A4205D04B46049A21460098FFF7DEFE6E
:1011500001340135082D04BF08F101080025013EC6
:10116000EAD127E0009B1B699B6898478146029E55
:10117000149DDDF84C8098F8002047FA05F31A42D8
:101180000FD0DDF810B05A462146DDF800A05046D9
:10119000FFF7CEFE89EA00035A4621465046FFF784
:1011A000B5FE01340135082D04BF08F10108002502
:1011B000013EE0D1139B129A13441393039B013316
:1011C0000393059A9A427FF47EAFFBE103928B185A
:1011D00005934FF0C008CDF84CA0039B0493139BDC
:1011E0001E78019B149A9C186C4B1B681B7C13F097
:1011F000030302D0022B46D087E0BBF1000F22D0C0
:10120000149D029FDDF84CA02146049CC5F1030308
:101210005A0001F10109C2F1060348FA03F3334011
:10122000D3405BF8233022460098FFF76FFE01356C
:10123000042D04D19AF801600AF1010A00254946FB
:10124000013FE3D161E0149D029FDDF84CA02146EF
:10125000C5F10302520001F10109C2F1060348FA87
:1012600003F33340D340049A0098FFF74FFE013553
:10127000042D04D19AF801600AF1010A00254946BB
:10128000013FE5D141E0BBF1000F20D0149D029F4A
:10129000DDF84C90C5F103035A00C2F1060348FA89
:1012A00003F33340D34006D05BF82330049A214641
:1012B0000098FFF72BFE01340135042D04D199F875
:1012C000016009F101090025013FE3D11DE0149DF2
:1012D000029FDDF84C90C5F103035A00C2F10603EA
:1012E00048FA03F33340D34004D0049A21460098CF
:1012F000FFF70CFE01340135042D04D199F801608B
:1013000009F101090025013FE5D1139B129A13440D
:101310001393039B01330393059A93427FF45DAFCC
:1013200050E103928B1805934FF0F008CDF84CA0D4
:10133000039B0493139B1E78019B149A9C18174BD4
:101340001B681B7C13F0030302D0022B48D089E0FA
:10135000BBF1000F24D0149D029FDDF84CA0214664
:10136000049CC5F101039A0001F10109C2F10403D3
:1013700048FA03F33340D3405BF823302246009809
:10138000FFF7C4FD0135022D04D19AF801600AF17E
:10139000010A00254946013FE3D163E094020020A1
:1013A000149D029FDDF84CA02146C5F10102920078
:1013B00001F10109C2F1040348FA03F33340D340B9
:1013C000049A0098FFF7A2FD0135022D04D19AF886
:1013D00001600AF1010A00254946013FE5D141E0DB
:1013E000BBF1000F20D0149D029FDDF84C90C5F199
:1013F00001039A00C2F1040348FA03F33340D340D7
:1014000006D05BF82330049A21460098FFF77EFD52
:1014100001340135022D04D199F8016009F1010967
:101420000025013FE3D11DE0149D029FDDF84C90A3
:10143000C5F101039A00C2F1040348FA03F33340F3
:10144000D34004D0049A21460098FFF75FFD013491
:101450000135022D04D199F8016009F10109002537
:10146000013FE5D1139B129A13441393039B01335D
:101470000393059A93427FF45BAFA3E0129F019B15
:10148000CAEB03059046029B0AEB03068B180393F5
:10149000CDF854B0BB46159FCDF804804B4B1B686C
:1014A0001B7C13F0030302D0022B22D043E01FB9B0
:1014B000029B002B11DC3EE0029B002B3BDDB14682
:1014C0005446237857F82330019A61190098FFF7A2
:1014D0001DFD0134A145F4D12DE0B14654462378D9
:1014E000019A61190098FFF711FD01344C45F6D1BE
:1014F00021E02FB9029B002BC8BF544611DC1AE033
:10150000029B002B17DD5446611914F8013B2BB1E7
:1015100057F82330019A0098FFF7F8FCB442F3D152
:1015200009E0611914F8013B1BB1019A0098FFF71B
:10153000EDFCA642F5D1DA44CBEB050508F1010834
:101540005E44039B4345A7D13CE0914601EB020872
:10155000029B019A9F18DDF800B04E46029B002BBB
:101560000BDD019C554635F8023B32462146584674
:10157000FFF7CCFC0134A742F5D1129B9A4409F144
:101580000109C845E9D11DE0914601EB0208029B23
:10159000019A9F18DDF800B04E46029B002B0BDD30
:1015A000019C554655F8043B324621465846FFF704
:1015B000ADFC0134A742F5D1129B9A4409F101090F
:1015C000C845E9D107B0BDE8F08F00BF9402002004
:1015D00008B501214FF4006003F04EF800214FF4EC
:1015E000006003F049F808BD10B40B4C62688168D4
:1015F00043681943C36819430368194303691943CE
:1016000022F4FD4323F07F030B43027D1343636009
:101610005DF8044B704700BF002C0140014B18607F
:10162000704700BFA0802542014B1860704700BF83
:10163000002C0140024B186800F00300704700BF07
:10164000002C014010B40368094A9360D36823F466
:10165000FF6323F00703446881680C43C1680C43AF
:10166000016921430B43D3605DF8044B704700BF11
:10167000002C0140014B1869C0B27047002C01409A
:1016800082B000230193034B03440193019B18682C
:1016900002B07047142C014010B4036809494B6232
:1016A00043688B62CB6A23F0F7028468C3681C43EB
:1016B00003692343406903431343CB625DF8044B42
:1016C000704700BF002C0140014BD3F880007047E9
:1016D000002C0140014BC3F880007047002C0140F2
:1016E00021B1054BDA6B1043D8637047024AD36BC4
:1016F00023EA0000D0637047002C0140034B5B6B72
:10170000034214BF01200020704700BF002C01409D
:10171000014B9863704700BF002C0140034B5B6B8B
:10172000034214BF01200020704700BF002C01407D
:10173000014B9863704700BF002C014038B5044648
:1017400003681D2B02D0262B2CD02FE019494068AE
:101750000DF0AEFE40F60B01606813F081FF054608
:1017600015490EF071F96FF07F4128460EF004F92B
:1017700040F60E01606813F073FF05460F490EF046
:1017800063F9FF2128460EF0F7F80E2128460EF0E7
:101790000FF940F61201606813F062FF4A210EF063
:1017A000D5FB38BD806813F021FE38BD16F00EFA67
:1017B00038BD00BF07070700B0D10308F8B503081C
:1017C00000B583B013F080FF00230193009303461C
:1017D000034A0921034810F077FB03B05DF804FBCE
:1017E0003D170008381A03082DE9F04FADF2D44D2B
:1017F00003F0CAFC0024ADF8CE4407F0CFF822462F
:10180000B84913A808F044FEB749A0A809F0DCF8CD
:10181000B64B1193FF23129300E001340BA9A0A84B
:1018200009F014F918B99DF83530002BF5D108945A
:10183000E3B2AF4EA51E35441F4624E0DDF82080FC
:101840004146002002F02CFE08F1FF33002B11DD91
:10185000BDF8CE34711E00224FF0010CE04611F8A5
:1018600001EF704504BF62464346A942F7D10AB171
:10187000ADF8CE34BDF8CE3413B93055274602E06A
:101880000023ADF8CE347C1EE4B2002FD6D10997E8
:101890000024ADF8CE4407F0A3F896481BF018FAE0
:1018A000FFF78EFF05460490914B6D2283F8FC20D4
:1018B000752283F8FD20732283F8FE20692283F8C5
:1018C000FF20632283F800212F2283F801218A4B15
:1018D000186803F0BBFB40F60B01284613F0C0FE6E
:1018E000039040F61201284613F0BAFE40F60A01B2
:1018F000284613F0B5FE40F60801284613F0B0FE66
:10190000074640F60901284613F0AAFE009040F66B
:101910001101284613F0A4FE0190A146012305936E
:101920000694A3469A46DFF8E481744C52E0002006
:101930000BF0EEFD07F032F80DF2CE434FF480626B
:101940006F49AAA808F080FE40BB28460EF02AFB8B
:10195000079001200BF0E8FDBDF8CE3473B1694E5D
:10196000002516F8010F0BF0F7FD236913F4807FB3
:10197000FBD00135BDF8CE34AB42F2DC00200BF0D9
:10198000D3FD9DF81C100A460B200BF019FEBDF884
:10199000CE34B3F5806F38BF4FF0010A0BF040FE34
:1019A0000BF096FE4FF47A7303FB00F00028B8BFEB
:1019B0000730C010069B93FBF0F504200BF060FE8F
:1019C000642303FB00F191FBF5F102980EF05EFC3D
:1019D00007F006F8D8F8103013F0080F1BD1D8F82C
:1019E000103013F0080FFAD0059B4BB1464B1B8B00
:1019F0009BB243F40073444A1383002305930AE027
:101A0000414B5B8B9BB243F400733F4A538305F019
:101A100029FA01230593384610F03CFB30B13846D3
:101A200010F038FB0028FAD14FF0010A019810F0AD
:101A300031FB30B1019810F02DFB0028FAD18BF06A
:101A4000010B009810F026FB38B1009810F022FB33
:101A50000028FAD1A9F1020902E0BAF1010F76D10A
:101A600006F09CFF09F10109089B4B4508BF4FF0A8
:101A700000091E4B1193FF2312931D4A02F2011518
:101A800002F265122B46002103F8011F9342FBD19D
:101A90001549A0A808F098FF154B13F809305BB161
:101AA000099E134F0BA9A0A808F0D0FF0136F6B28B
:101AB00017F80930B342F5D10BA9A0A808F0C6FF6A
:101AC00078BB9DF8353063B306F08AFF119B1A7816
:101AD000F2B105F8012F013311931A78002AF8D1D9
:101AE0001FE000BF3C1C0308341B030858D600202D
:101AF00000000068B0D10308B0E000200000024000
:101B0000680100686701006800040240001002409C
:101B10000DAB0DF1410213F8011F05F8011F9342AF
:101B2000F9D10BF095FD06F039FF1F4D012205F1AB
:101B3000FC01AAA808F0DEFCAD9B069306F050FF5E
:101B400005F5817103980DF04DFF4FF0000A282034
:101B500003F020FC40F60B01049E304613F080FD9C
:101B6000039040F61201304613F07AFD054640F628
:101B70000A01304613F074FD029040F60801304629
:101B800013F06EFD074640F60901304613F068FD7C
:101B9000009040F61101304613F062FD0190BBF158
:101BA000000F3FF417AFC2E60000006808B54FF41D
:101BB000FF2103481FF0BCFB02481CF055FE08BD86
:101BC00068050068ACD403082DE9F0418846174643
:101BD0001E4601211D4809F0E1F81D4D1B4C294608
:101BE000204609F023F90028F9D00022D021174817
:101BF00009F0F0F8174D154C2946204609F016F962
:101C00000028F9D04146114809F00AF9124D0F4C4D
:101C10002946204609F00AF90028F9D037440B4C30
:101C20000D4D0AE016F8011B204609F0F9F8294687
:101C3000204609F0FBF80028F9D0BE42F2D101217C
:101C4000024809F0B9F80020BDE8F08100540040D6
:101C500001000300820007008400070000B583B084
:101C6000214B93F82430BBB118B102238DF8073013
:101C700002E000238DF807301B4B196858680DF1FE
:101C800007030122497C0078FFF79EFF10BB9DF8F7
:101C90000720154B5A7424E0134B9B7AE3B130B103
:101CA000114B5B7CD3B901238DF8073002E0002390
:101CB0008DF807300C4B196858680DF107030122A5
:101CC000497C0078FFF780FF50B99DF80720064B4C
:101CD0005A7406E0012004E0012002E0002000E048
:101CE000012003B05DF804FB000000202DE9F04165
:101CF000884614461F463B4E4FF400352946304671
:101D000009F0A2F80028F9D10121364809F046F877
:101D1000354E344D3146284609F088F80028F9D070
:101D20000022D0212F4809F055F8304E2D4D314674
:101D3000284609F07BF80028F9D02A4D01212846D1
:101D400009F01EF84146284609F06AF8284E314647
:101D5000284609F06BF80028F9D00121214809F044
:101D60001DF8214E1F4D3146284609F05FF8002826
:101D7000F9D00122D0211B4809F02CF81D4E194D35
:101D80003146284609F052F80028F9D01A4E154D70
:101D90001FE04FF00008012C0ED14146284609F003
:101DA00023F80121284609F007F83146284609F0B2
:101DB0003DF80028EFD005E03146284609F036F816
:101DC0000028E8D0284609F02DF807F8010B013C5F
:101DD000E4B2002CDDD10121024809F005F8002011
:101DE000BDE8F081005400400100030082000700BC
:101DF0008400070002000300400003001E4B9B7A92
:101E000093B310B582B004461B4B1968586801ABF8
:101E10000222097C0078FFF769FF024638BB164BA7
:101E200059689DF804009DF8053043EA00231BB271
:101E300007EE903AB8EEE77AB1F9083007EE903A3B
:101E4000F8EEE77A77EE677ACB8806EE903AF8EE0E
:101E5000E66A87EEA67ADFED097A77EE277AFEEE5C
:101E6000C87AC4ED007A03E00122104670470122CF
:101E7000104602B010BD00BF0000002000000C4260
:101E8000734B9B7A002B00F0CD8000B583B002AB82
:101E9000002203F8012D6E4A116850680122497C26
:101EA0000078FFF791FE002840F0BE80684B19686B
:101EB00058680DF10703012249790078FFF784FE85
:101EC000002840F0B380624B196858680DF1070391
:101ED000012209790078FFF777FE002840F0A880FA
:101EE0005B4B93F82430002B4ED002AB0C2203F84E
:101EF000012D574A11685068012209790078FFF7CF
:101F000063FE002840F0968032200BF019FBC023BE
:101F10008DF807304E4B9B7A13F0010F1CBFE02366
:101F20008DF807304A4B196858680DF107030122F4
:101F300009790078FFF748FE00287DD1444B5B7C8F
:101F40001BB102238DF8073002E000238DF8073023
:101F50003F4B196858680DF107030122497C00784E
:101F6000FFF732FE002869D102AB002203F8012DF1
:101F7000374A11685068012249790078FFF724FE3A
:101F8000003018BF012060E002AB042203F8012DED
:101F90002F4A11685068012209790078FFF714FE72
:101FA00000284DD12A4B9B7C23B9294B9B7A13F0F7
:101FB000010F03D140238DF8073002E060238DF834
:101FC0000730234B196858680DF10703012209797E
:101FD0000078FFF7F9FD002834D132200BF0B0FA79
:101FE0001B4B5B7C1BB101238DF8073002E0002303
:101FF0008DF80730164B196858680DF10703012258
:10200000497C0078FFF7E0FDF0B9114B196858687A
:102010001033012249790078FFF7D6FD003018BF50
:10202000012012E00120704701200EE001200CE0A9
:1020300001200AE0012008E0012006E0012004E080
:10204000012002E0012000E0012003B05DF804FB64
:10205000000000200D4B1B7A032B12D8DFE803F0A1
:102060000205090DFA2303800DE04FF4FA73038093
:1020700009E04FF47A73038005E04FF4FA630380BC
:1020800001E0002303800020704700BF0000002013
:1020900000B583B0214B9B7AABB3B0F5FA7F0ED07D
:1020A00002D8FA2807D030E0B0F57A7F0BD0B0F52F
:1020B000FA6F0CD029E000238DF807300AE00823DE
:1020C0008DF8073006E010238DF8073002E0182362
:1020D0008DF807309DF80720104B1B7AB3EBD20F19
:1020E00015D00E4B196858680DF107030122897944
:1020F0000078FFF769FD034658B99DF80720D2081C
:1021000006490A7206E0012304E0012302E00023ED
:1021100000E00123184603B05DF804FB0000002036
:102120000E4B5B7A032B16D8DFE803F00205080B91
:102130000223037007E00423037004E00823037004
:1021400001E010230370054BDB7C2BB103785B00AF
:102150000370002300E001231846704700000020B0
:1021600000B583B0214B9B7A002B34D002380E2867
:1021700033D8DFE800F008320C323232103232321B
:1021800032323232140000238DF807300AE008237F
:102190008DF8073006E010238DF8073002E0182391
:1021A0008DF807309DF80720104B5B7AB3EBD20F08
:1021B00015D00E4B196858680DF107030122C97933
:1021C0000078FFF701FD034658B99DF80720D208B3
:1021D00006494A7206E0012304E0012302E00023DD
:1021E00000E00123184603B05DF804FB0000002066
:1021F0000F4BDB7A013B052B16D8DFE803F0030613
:10220000090C0F12BC23038010E0622303800DE051
:102210002A2303800AE01423038007E00A230380B3
:1022200004E00523038001E00023038000207047C1
:1022300000000020224B9B7A002B36D000B583B0E3
:10224000BB2803D901238DF8073017E0612803D993
:1022500002238DF8073011E0292803D903238DF8D4
:1022600007300BE0132803D904238DF8073005E06D
:1022700009288CBF052306238DF80730104BDA7A26
:102280009DF807309A4213D00D4B196858680DF12C
:102290000703012289780078FFF796FC034648B9C6
:1022A0009DF80710064AD17205E0012318467047D1
:1022B000002300E00123184603B05DF804FB00BFD3
:1022C00000000020054B93F824301BB9034AD28943
:1022D000028000E001231846704700BF0000002084
:1022E00038B5164B93F82430C3B9144B9B7ABBB165
:1022F00000F0FE00114A157C03401374C41A18BF85
:102300004FF0FF3470B9137DA3B9FFF7A7FC03E0CA
:102310000A4B1D74012038BDE0B238BD002038BD25
:10232000012038BD0120FFF799FCFFF7A9FD002827
:10233000F2D0EDE70120FFF791FCEDE7000000206F
:10234000524B9B7C834200F0928010B582B00446D1
:10235000002841D04D4B196858680DF10703012240
:1023600009790078FFF7C2FC002840F082809DF8D0
:10237000072022F0200202AB03F8012D434A116826
:102380005068012209790078FFF71EFC002872D1FD
:1023900003200BF0D5F802238DF807303B4B93F860
:1023A000223013B182238DF80730384B93F8233055
:1023B0002BB19DF8073043F030038DF80730334BD5
:1023C000196858680DF107030122C97D0078FFF7ED
:1023D000FBFB002847D050E02C4B196858680DF1E2
:1023E0000703012209790078FFF780FC002846D115
:1023F000264B9B7A13F0010F9DF8073014BF43F072
:10240000200323F020038DF80730204B196858680B
:102410000DF10703012209790078FFF7D5FB80BB96
:1024200003200BF08DF8194B93F822301BB1802359
:102430008DF8073002E000238DF80730134B93F836
:1024400023302BB19DF8073043F030038DF807306F
:102450000E4B196858680DF107030122C97D0078F9
:10246000FFF7B2FB78B9094B9C7400200CE0002008
:102470007047012008E0012006E0012004E001206F
:1024800002E0012000E0012002B010BD00000020A9
:102490001C4B93F8233083422DD010B582B018B175
:1024A00030238DF8073002E000238DF80730154BFC
:1024B0009B7C2BB19DF8073043F002038DF8073069
:1024C000104B93F822302BB19DF8073063F07F0357
:1024D0008DF8073004460B4B196858680DF1070357
:1024E0000122C97D0078FFF76FFB034630B9054A2A
:1024F00082F8234003E00023184670470123184662
:1025000002B010BD0000002010B582B028285CD8B1
:102510000446C0B90020FFF7BBFF00238DF804304C
:1025200007238DF805302D4B1968586801AB02223E
:10253000497D0078FFF748FB0446002847D1002278
:10254000264B1A7546E00120FFF7A2FF20238DF8E5
:102550000430012C06D100238DF805300520FFF74B
:1025600069FE17E0052C06D801238DF805300520FB
:10257000FFF760FE0EE0142C06D802238DF805301C
:102580000A20FFF757FE05E003238DF805301420DD
:10259000FFF750FE9DF805309B0143F007038DF8CF
:1025A00005300E4B1968586801AB0222497D00784E
:1025B000FFF70AFB044660B9084B08229A721873A9
:1025C00001221A75FFF78CFE04E0012402E00124C9
:1025D00000E00124204602B010BD00BF0000002032
:1025E00030B583B0224B9B7A002B39D0204B93F827
:1025F0002440002C36D105461B7D53B1431E9BB2AF
:10260000272B03D8C0B2FFF77FFF2EE00020FFF793
:102610007BFF032D06D92846B5F57A7F28BF4FF4F6
:102620007A7000E004204FF47A7595FBF0F00138E1
:1026300002AB03F8010D0E4A116850680122497877
:102640000078FFF7C1FA044670B99DF80700013021
:1026500095FBF0F0064BD8814008FFF7EBFD04E056
:10266000012402E0012400E00124204603B030BD33
:102670000000002030B583B0044610F0700F03D086
:1026800001238DF8073013E018B100238DF80730CF
:102690000EE002AB402203F8012D374A1168506862
:1026A0000122497D0078FFF78FFA002859D00AE00F
:1026B000314B196858680DF107030122497D0078F4
:1026C000FFF782FA20B100222B4B9A7201254FE0CE
:1026D0009DF8073023F04003274A137300238DF839
:1026E000073014F0400F02D104238DF8073014F0A6
:1026F000200F05D19DF8073043F002038DF8073015
:1027000014F0100F05D19DF8073043F001038DF848
:10271000073014F0080F05D19DF8073043F0380357
:102720008DF80730144B196858680DF10703012222
:10273000897D0078FFF748FA054620B100220E4B4C
:102740009A72012514E014F0F70F02D00020FFF771
:102750009FFE094B9C7200221A7532200AF0F0FE8F
:1027600006E09DF8073023F04003034A1373BBE7EC
:10277000284603B030BD00BF0000002010B582B075
:1027800002AB802203F8082D564A116850680122D6
:10279000497D0078FFF718FA002840F0898064200E
:1027A0000AF0CEFE02AB002203F8082D4D4A116854
:1027B00050680122497D0078FFF706FA002879D198
:1027C000484B196858686B460622497E0078FFF727
:1027D0008DFA002870D19DF805309B0003F00402AB
:1027E0009DF803305B0003F0020313439DF80120C2
:1027F00002F0010213430BD0012B03D10122394B0C
:10280000DA741BE0022B59D10022364BDA7415E042
:10281000344B196858686B460122C9780078FFF775
:1028200065FA00284CD19DF8003013F00F0349D011
:10283000042B0CBF012200222A4BDA74294BFF2201
:102840009A721A725A72DA724FF6FF71D9811A743B
:102850009A7401221A73002283F8222083F823201D
:102860005A751A75C3F81620C3F81A20C3F81E202B
:1028700083F8242083F82520DA844FF4FA60FFF7E8
:1028800007FC08BB0220FFF76BFCF8B92A20FFF712
:10289000D1FCE8B93220FFF7A3FED8B9FFF720FD3D
:1028A000D0B9FFF74DFD0446C0B9FFF7E3FE16E0CF
:1028B000012414E0012412E0012410E001240EE0C0
:1028C00001240CE001240AE0012408E0012406E0D0
:1028D000012404E0012402E0012400E00124204658
:1028E00002B010BD000000204AB31346184A927A85
:1028F0003AB370B582B0020A8DF80420C0B28DF8E8
:102900000500134A556808446A8990421BDC1E463C
:102910000C460F4B196801AB0222C97E2878FFF7DD
:1029200053F990B90A4B196858683346E2B2097EE8
:102930000078FFF749F9003018BF012006E00120B8
:10294000704701207047012000E0012002B070BDF7
:10295000000000204AB31346184A927A3AB370B581
:1029600082B0020A8DF80420C0B28DF80500134A27
:10297000556808446A8990421BDC1E460C460F4B82
:10298000196801AB0222C97E2878FFF71DF990B9BA
:102990000A4B196858683346E2B2097E0078FFF79F
:1029A000A5F9003018BF012006E001207047012082
:1029B0007047012000E0012002B070BD000000203F
:1029C0002DE9F04F83B0294C94F82540002C3ED1DE
:1029D00000293ED0019393468A468046F8B1DFF83D
:1029E0009490C4EB0806102EA8BF1026B5B20AEBCF
:1029F00004073A4629462046FFF776FF58BB4A4669
:102A000029462046FFF7A6FF38BB2A4649463846E6
:102A100029F020F918BB2C44A4B2A045E1D8144BEE
:102A20004FEA1B221A7083F801B0104A11685068EF
:102A30000222497F0078FFF7C7F8034688B90B4A9E
:102A4000012182F82510BDF80410D1840AE0012389
:102A500008E0012306E0012304E0012302E0022351
:102A600000E00123184603B0BDE8F08F000000200D
:102A700010E9002014E9002030B583B0204B93F812
:102A80002430834236D000B31D4B93F825309BB3DE
:102A90000020FFF7E3F80020FFF752FC184DE88C08
:102AA000FFF79EFD002402AB03F8014D6868012288
:102AB00023210078FFF788F8012085F82400FFF72C
:102AC000CDF8FFF7DDF9204617E00020FFF7C6F844
:102AD0000B4D2A7C02AB03F8012D686801222321EB
:102AE0000078FFF771F8002485F82440FFF7C8F953
:102AF000204602E0002000E0012003B030BD00BF0E
:102B000000000020F0B583B02AB9754B9B7D002BE7
:102B100000F0AD80B6E00C461646B0F5FF5F04D875
:102B20001F2804D9C0F3471502E0FF2500E0012566
:102B3000002C08BF0124282E00F2CC80684B5B7D5E
:102B400023BB674B93F824303BB10020FFF794FF81
:102B50000122634B83F8202003E00022604B83F8BE
:102B600020205F4F07F11600FFF774FA07F11800F5
:102B7000FFF7D6FA07F11A00FFF73AFB07F11C003E
:102B8000FFF7A0FBBB7ABB773B7CFB770020FFF70E
:102B900065F80020FFF7B8FC02AB002203F8042D13
:102BA0004F4A11685068012289780078FFF70CF8C5
:102BB000002840F0918002AB402203F8042D484ADF
:102BC000116850680122497C0078FEF7FDFF00285B
:102BD00058D18DF804508DF80540414B196858685C
:102BE00001AB0222897A0078FEF7EEFF002849D176
:102BF00005200AF0A5FC3A494A7AD20042F00702C1
:102C000002AB03F8042D0C6848680122E1790078D2
:102C1000FEF7DAFF002835D120238DF80430012E8D
:102C200003D100238DF805300BE0052E03D80123D6
:102C30008DF8053005E0142E94BF022303238DF890
:102C400005309DF805309B0143F007038DF80530F2
:102C5000234B1968586801AB0222497D0078FEF7C2
:102C6000B3FF034670B901211D4A517535E01C4977
:102C700001F11603213113F8012F1AB98B42FAD151
:102C800001232AE0164CFF2323726372E3724FF68E
:102C9000FF72E281A372237401232373A07FFFF7E5
:102CA000E9FCE08AFFF7F4F9207EFFF759FA608B20
:102CB000FFF7C0FAA08BFFF793FCE07FFFF710FB54
:102CC00094F8203013B10120FFF7D6FE0023044A08
:102CD000537502E0012300E00123184603B0F0BD64
:102CE0000000002008B50020FFF748FD7820FFF71E
:102CF000C1FC03F0F3FC7820FFF7F2FA6420FFF741
:102D00006FFC012003F0FAFF40F2711003F0EEFEB9
:102D100000220721372000F077FB0120FFF7ACFEEF
:102D2000282206214FF4E160FFF7ECFE08BD00BF4A
:102D300008B5024829F010F908BD00BFD41B0308EC
:102D400008B510B1012804D007E0064829F004F9BD
:102D500008BD054829F000F908BD044829F0FCF831
:102D600008BD00BFE81B0308FC1B0308101C030878
:102D700008B5024829F0F0F808BD00BF281C030878
:102D800008B5024829F0E8F808BD00BF401C030858
:102D900008B5024829F0E0F808BD00BF541C03083C
:102DA00008B5024829F0D8F808BD00BF681C030820
:102DB00008B5024829F0D0F808BD00BF7C1C030804
:102DC00070B5044603681D2B5DD1002140680EF0EC
:102DD000D7FB40F62101606812F042FC054640F640
:102DE0002201606812F03CFC06461E2128460EF0C7
:102DF00079FB1E2130460EF075FB012128460EF0AE
:102E000051FB012130460EF04DFB012128460EF00A
:102E100087FB012130460EF083FB4FF4C87301227B
:102E200011460A200DF010FD184C20604FF47F4130
:102E30000DF040FD216828460EF00CFB216830465D
:102E40000EF008FB6423002202210A200DF0FCFC96
:102E500060604FF47F010DF02DFD616828460EF093
:102E6000F9FA616830460EF0F5FA6423084A4FF427
:102E7000FA714FF47F000DF009FE0146A06028466C
:102E80000EF0C0FA70BD14F0A1FE70BD58D700203E
:102E9000ECE3002000B583B012F016FC0023019390
:102EA00000930346034A032103480FF00DF803B0D3
:102EB0005DF804FBC12D0008941C030870B584B0B4
:102EC000FFF7E8FF044640F6210112F0C9FB064671
:102ED00040F62201204612F0C3FB054600231A46A5
:102EE0004FF4FA714FF47F000DF0D0FD134CA06049
:102EF00000231A464FF4FA714FF47F400DF0C6FDDF
:102F0000E060A16830460EF07DFAE16828460EF0D8
:102F100079FA0B4B186802F099F86425284602F0FC
:102F200039FA05F03BFD6846FEF768FF05F058FDED
:102F3000BDF90010A0680DF0F7FDEFE758D70020AD
:102F4000B0E00020014B1860704700BF20000E4227
:102F500008B500231A46084908481BF08BFBF022ED
:102F60004FF4A071002017F049F9F0224FF4A0713E
:102F7000002017F029F908BD70320408041A03086C
:102F8000012904D108B503F06DFF002008BD4FF002
:102F9000FF307047F8B5044603681D2B40F092805F
:102FA000002140680EF0ECFA40F60201606812F071
:102FB00057FB054645490CF047FD454928460CF0AE
:102FC00011FD40F60301606812F04AFB05464149D5
:102FD0000CF008FD404928460CF036FD40F604018F
:102FE000606812F03DFB05463C4E31460CF02CFD6E
:102FF0003B4928460CF0F6FC40F60501606812F0EB
:103000002FFB074637490CF0EDFC374D2946384673
:103010000CF01AFD40F60601606812F021FB07462D
:1030200032490CF0DFFC314638460CF00DFD40F61D
:103030000701606812F014FB064629460CF004FDF7
:103040002B4930460CF0CEFC40F60501606812F0CA
:1030500007FB04460A210EF045FA012120460EF036
:1030600021FA012120460EF05BFA64230122114669
:1030700005200DF0E9FB1F4D28604FF47F410DF056
:1030800019FC296820460EF0E5F9322300220221BE
:1030900005200DF0D9FB68604FF47F010DF00AFCAC
:1030A000696820460EF0D6F96423134A4FF4FA718A
:1030B0004FF47F000DF0EAFC0146A86020460EF0B8
:1030C000A1F9F8BD14F082FDF8BD00BF1887030810
:1030D000D81D0308DC1D030898AB030880190408F9
:1030E000E01D0308E41D0308540C0408EC1D03084C
:1030F000F01D030868D70020ECE3002000B583B082
:1031000012F0E2FA0023019300930346034A0821D8
:1031100003480EF0D9FE03B05DF804FB952F0008BC
:10312000F81C03082DE9F04F87B0FFF7E7FF059083
:10313000454B186808B101F089FF444B186808B185
:1031400001F084FF002019F0DBFC40F60501059832
:1031500012F086FA044600231A464FF4FA714FF42F
:103160007F000DF093FC0146394B986020460EF02D
:1031700049F94FF00009DFF8F4B0DFF8F4A0DFF808
:10318000D08008F1200519F001FFF8B1DBF800301C
:10319000B3F57A7F1DDD0024039402942A4B01933A
:1031A0000626009623464FF400722A492A4801F069
:1031B00063FE03940294254B0193009623464FF43B
:1031C00000722649264801F057FE02E00023CBF8A2
:1031D0000030244B1B6913F0080F02D1FCF7D4FF19
:1031E000FCE7BAF818309BB243F48073AAF81830A1
:1031F00040F60201059E304612F032FA04460A22D9
:103200001949484607F076FC014620460CF0EAFBD7
:1032100009F10109642002F0BDF830460FF0C0FF4B
:1032200008F10C04642700263946304601F038F9CD
:1032300024F8020BAC42F7D1B8F90C10D8F808000A
:103240000DF072FC9FE700BFB0E000200CE9002009
:1032500068D70020F81D030899620008001E0308C3
:10326000756600080010024018E0002008110120D7
:1032700000040240F8B506460F4601211A4807F03F
:103280008DFD1A4D184C2946204607F0CFFD002829
:10329000F9D00022D021144807F09CFD144D124CA7
:1032A0002946204607F0C2FD0028F9D039460E48CD
:1032B00007F0B6FD0F4D0C4C2946204607F0B6FD31
:1032C0000028F9D03178084807F0AAFD094D064CCE
:1032D0002946204607F0AAFD0028F9D0012102481E
:1032E00007F06AFDF8BD00BF005400400100030074
:1032F00082000700840007002DE9F0410746884658
:1033000014463B4E4FF400352946304607F09CFDED
:103310000028F9D10121364807F040FD354E344DE3
:103320003146284607F082FD0028F9D00022D0213E
:103330002F4807F04FFD304E2D4D3146284607F0FF
:1033400075FD0028F9D02A4D0121284607F018FD07
:103350004146284607F064FD284E3146284607F0CE
:1033600065FD0028F9D00121214807F017FD214E05
:103370001F4D3146284607F059FD0028F9D001229B
:10338000D0211B4807F026FD1D4E194D3146284619
:1033900007F04CFD0028F9D01A4E154D1FE04FF0F4
:1033A0000008012C0ED14146284607F01DFD0121E1
:1033B000284607F001FD3146284607F037FD002872
:1033C000EFD005E03146284607F030FD0028E8D070
:1033D000284607F027FD07F8010B013CA4B2002C9A
:1033E000DDD10121024807F0FFFCBDE8F08100BFFC
:1033F0000054004001000300820007008400070021
:10340000020003004000030070B582B004460D4680
:103410001646012201460DF10700FFF76DFF36B198
:103420000121A9409DF807301943C9B205E00121E7
:10343000A9409DF8073023EA010102A800F8011D08
:103440002146FFF717FF02B070BD00BF08B5114B52
:10345000114A9A420CD2581E801A20F00300043000
:103460000E4B184453F8041B42F8041B8342F9D155
:103470000B480C494FF000028842B8BF40F8042BBB
:10348000FADBDFF82400016841F47001016000F00C
:103490001FFF08BD8C0D00200000002058500408BC
:1034A000400E00203050012088ED00E008B5044BAC
:1034B0001A6912F0080FFBD1FCF766FEFCE700BFAB
:1034C00000100240014B1860704700BF0030004000
:1034D000014B5860704700BF00300040014B9860BE
:1034E000704700BF003000404AF6AA22014B1A6024
:1034F000704700BF003000404CF6CC42014B1A60D0
:10350000704700BF0030004020230B800048704708
:103510004800002010B50446812107F0ADFD0121CF
:10352000204607F0A9FD20460AF054FA002010BDFD
:1035300010B50446FFF7EEFF02234022812120460A
:1035400007F062FD022340220121204607F05CFDC6
:1035500020460AF00BFA002010BD00BF70B50646E9
:103560000C460B7813F060053FD0202D61D14A78CE
:10357000FE2A02D0FF2A23D033E04A88D2B9CA8873
:10358000012A17D113F0800F14D02B4B1B689B69B5
:103590009847C0B2294B187030B101221946304605
:1035A0000AF07AF9002545E02146304604F0E4FBB4
:1035B00002253FE02146304604F0DEFB022539E0DB
:1035C0004A8842B9CA8832B913F0800F03D10AF091
:1035D000EFF900252EE02146304604F0CDFB022510
:1035E00028E004F0C9FB022524E04B780A2B04D024
:1035F0000B2B07D0012B1DD108E0012210490AF046
:103600004BF917E04A880D4B5A7013E0097907F01F
:10361000DDFD2179304607F02FFDA18802234022ED
:10362000C9B2304607F0F0FC217930460AF08CFA36
:1036300000E00025284670BDD8000020B0D700204B
:10364000B1D7002008B50AF0E7F9002008BD00BF97
:1036500008B50AF001FA002008BD00BF10B5044605
:10366000D0F8E8351B699847032384F8123100200D
:1036700010BD00BF08B590F8123180F81331042353
:1036800080F81231D0F8E835DB689847002008BD93
:1036900008B5D0F8E435DB6903B19847002008BDD0
:1036A00008B5D0F8E4351B6A9847002008BD00BF74
:1036B00008B5D0F8E4355B6A9847002008BD00BF24
:1036C00010B5044600234022194607F09DFC002354
:1036D00040228021204607F097FC012384F8123114
:1036E000D4F8E8355B68A0789847002010BD00BF8B
:1036F00010B582B00446694604F01CFB9DF800102A
:1037000001F01F03012B08D013B1022B0AD00EE0E9
:103710006946204604F03EFB0EE06946204604F070
:10372000C5FC09E06946204604F0DCFC04E001F039
:103730008001204607F00AFD002002B010BD00BF46
:1037400010B50446002948D190F81131022B38D128
:10375000D0F83821D0F824319A4211D9D21AC0F8C1
:103760003821C178012904D1D0F828110B44C0F8C0
:10377000283192B2D4F8281120460AF09DF820E0B2
:10378000D0F83C11B1FBF3F203FB121262B98B4289
:103790000AD8D0F84031994206D211460AF08CF886
:1037A0000023C4F840310CE0D4F8E435DB682BB1D9
:1037B00094F81221032A01D12046984720460AF0A6
:1037C0009BF894F81631012B12D12369094A12682B
:1037D0005A60002384F816310AE00A46D0F8E4352E
:1037E0005B692BB190F81211032901D1114698475A
:1037F000002010BD0411012010B5044659BB90F8FB
:103800001131032B32D1D0F89033D0F87C2393427E
:1038100014D99B1AC0F89033C178012904D1D0F88B
:1038200080131144C0F880139A4228BF1A4692B2FE
:10383000D4F8801320460AF047F817E0D0F8E435B2
:103840001B6923B190F81221032A00D19847204622
:103850000AF042F80AE00A46D0F8E4359B692BB139
:1038600090F81211032901D111469847002010BD8C
:10387000F8B504460D4616461F4604F0D5F9C4F8BF
:10388000E475069BC4F8E835C4F8EC652946204683
:1038900007F070FBD4F8E8351B689847204604F021
:1038A00009FAF8BD10B50446D0F8E4351B6898470E
:1038B000D4F8E8359B689847002010BD08B5D0F8CB
:1038C000E4355B689847002008BD00BF70B582B042
:1038D00001F05AFC002204210A2004F087FD184B55
:1038E0001860184C184E194D238B9BB243F480730B
:1038F00023834FF4967018F011FEFFF7F5FD23694E
:1039000013F4805F01D133680BB9FCF73DFC2B69E0
:1039100013F4804FE8D10E4B00930E4B0E4A012159
:103920000E48FFF7A5FF0E4E0025064C3560238B91
:103930009BB243F480732383FFF7D6FDF6E700BF05
:10394000E4E3002000040240C4000020001802400C
:103950002C0000206800002028010020C003012066
:10396000541B012008B505F019F807F029F910B12A
:103970000022024B1A6005F033F808BD541B0120E9
:10398000074A084B1A60BFF34F8F0749CA6802F411
:10399000E062064B1343CB60BFF34F8FFEE700BFDF
:1039A000EFBEADDEF0FF002000ED00E00400FA0500
:1039B00070B590B005460E46144C0121204603F028
:1039C000B5FE204603F0DCFD002301930296104A69
:1039D00003928022049205954FF400720692079399
:1039E000089309930A934FF440320B9204220C92ED
:1039F00002220D920E930F9301A9204603F06AFE56
:103A00000121204603F092FE10B070BD1064024008
:103A1000000001802DE9F04182B00F4690461C461F
:103A2000BDF8206001220146194806F063FD194BDC
:103A3000187006FB04F505EB45050023019306EB22
:103A40000803E219013B013A4146384603F076FA91
:103A5000002D19DD104E114C01AB4FF400623146C0
:103A60000B4806F0F1FD0B4B187031464FF4006027
:103A7000FFF79EFF236813F0200FFBD00023236085
:103A8000A5F500659D42E7DC02B0BDE8F08100BF0E
:103A90002C110120B2D700205413012000640240F1
:103AA000F0B589B0074663230693A723ADF8143019
:103AB0000026ADF81C60ADF81660104C05A9204634
:103AC0000AF05AF86023ADF800300125ADF8025035
:103AD0000297ADF80C60694620460AF0ADF808215F
:103AE00020460AF0DDF8294620460AF089F82946E2
:103AF00020460AF093F809B0F0BD00BF0004004072
:103B00004FF08043A8221A854FF47A72DA629A89BC
:103B100092B242F001029A811A8892B242F00102F6
:103B20001A804FF08052014B1A60704700E100E0AC
:103B3000684620F007018D4601B4154A1368013329
:103B40001360144A136801331360134B1B68002B76
:103B500003DD114A1368013B13600E4B1A6840F2F3
:103B600014539A4202D10022094B1A60084B1A687A
:103B700041F288339A4202D10022084B1A604FF674
:103B8000FE724FF080431A825DF8040B8546704741
:103B9000541B012008110120581B0120C4000020E3
:103BA000034B18601A461368002BFCDC704700BFFB
:103BB000581B012008B545F25550FFF783FC012042
:103BC000FFF786FC40F6FF70FFF788FCFFF78CFCE0
:103BD000FFF792FC08BD00BF10B50120FFF7B2F956
:103BE000012000F077FC4124204600F053FD00281E
:103BF000FAD04FF4807000F0CDFC012000F0E2FC20
:103C000009F0E2FD47F6FF72044B1A6100F056FD21
:103C100043F2F221002009F021FE10BD00280040EF
:103C2000384B4FF0AC629A601A6842F480321A60E6
:103C30001A46136813F4003FFBD040F20472324B73
:103C40001A60A3F58063314A5A601A6842F08072A4
:103C50001A601A46136813F0007FFBD0294A936854
:103C600043F4144343F002039360936813F0080F86
:103C7000FBD0274AD2F8883043F47003C2F888306A
:103C8000204B1A6B42F001021A631A6B42F00202D7
:103C90001A631A6B42F004021A631A6B42F00802AC
:103CA0001A631A6B42F010021A631A6B42F0200278
:103CB0001A631A6B42F040021A631A6C42F0805287
:103CC0001A641A6B42F480021A639A6B42F0010282
:103CD0009A631A6C42F002021A641A6C42F00102F2
:103CE0001A645A6C42F480425A641A6B42F480524D
:103CF0001A635A6B42F040025A635A6C42F40062F3
:103D00005A64704700380240003C0240105440079B
:103D100000ED00E000B583B000214FF0006007F037
:103D20001FF900238DF805308DF8063001238DF83A
:103D3000073002A81C2300F8043D07F0D9F803B0AF
:103D40005DF804FB684620F007018D4601B54FF48D
:103D5000805009F093FD4FF4003007F0B9F8BDE84A
:103D600001408546704700BF2DE9F04383B0BC4D4C
:103D70004FF00009C5F800902B6843F480332B60A6
:103D8000AB6843F44033AB606B6943F480736B61A1
:103D90002B8B9BB243F480732B83B24C236843F488
:103DA00080532360A36843F44053A360636943F0E6
:103DB00040036361AC4F3B6843F080633B60BB688A
:103DC00043F04063BB607B6943F400537B6123682D
:103DD00043F002032360A36843F00303A3600C22B3
:103DE0004946204603F012F8236843F00803236095
:103DF000A36843F00C03A3600C220121204603F0CA
:103E000005F8236843F400732360A36843F4407308
:103E1000A3600C220421204602F0F8FF236843F43B
:103E200000632360A36843F44063A3600C22052170
:103E3000204602F0EBFF236843F400032360A368ED
:103E400043F44003A3600C220B21204602F0DEFF66
:103E5000236843F000532360A36843F04053A360FA
:103E60000C220E21204602F0D1FF236843F00043CC
:103E70002360A36843F04043A3600C220F21204637
:103E800002F0C4FF794E336843F400433360B368F3
:103E900043F44043B3600C220721304602F0B6FFE2
:103EA000336843F400333360B36843F44033B360A2
:103EB0000C220821304602F0A9FF336843F40023A6
:103EC0003360B36843F44023B3600C2209213046C9
:103ED00002F09CFF336843F400133360B36843F48B
:103EE0004013B3600C220A21304602F08FFFDFF846
:103EF0008481D8F8003043F00403C8F80030D8F8C3
:103F0000043043F00203C8F80430D8F8083043F016
:103F10000C03C8F80830D8F8143043F00203C8F88E
:103F20001430B8F81A309BB243F00203A8F81A30E4
:103F3000D8F8003043F01003C8F80030D8F8083043
:103F400043F03003C8F80830D8F8143043F00403C5
:103F5000C8F814302B6843F008032B60AB6843F0BB
:103F60000C03AB6002220121284602F04FFF4846B5
:103F7000FFF796FD2B6843F480232B60AB6843F476
:103F80000023AB606B6943F400736B612B8B9BB2B6
:103F900043F400732B83364B1A6842F480021A6094
:103FA0009A6842F440029A605A6942F400625A6187
:103FB0001A8B92B242F400621A831A6842F4805259
:103FC0001A609A6842F440529A605A6942F040027C
:103FD0005A611A8B92B242F040021A832A6842F068
:103FE00040022A60AA6842F08002AA606A6942F030
:103FF00008026A612A8B92B242F008022A831A6888
:1040000042F480221A609A6842F400229A605A6947
:1040100042F400725A615A8B92B242F400725A838F
:10402000336843F010033360B36843F02003B36098
:10403000736943F0040373614A460221304602F07B
:10404000DFFE3B6843F040033B60BB6843F0800306
:10405000BB607B6943F008037B617B8B0CE000BF96
:1040600000040240000C0240000802400010024020
:1040700000140240000002409BB243F008037B831F
:10408000AB6843F04053AB60EB6843F08053EB60A8
:104090002B6843F400532B60AB6843F44053AB6090
:1040A00002220621284602F0B1FEB36843F0C003A5
:1040B000B360F36843F04003F360144B9A6842F036
:1040C00040529A60DA6842F08052DA60AB6843F09E
:1040D0004073AB60BB6843F48063BB60FB6843F430
:1040E0008063FB604FF4807300938DF804908DF82B
:1040F00007906946404602F035FE638B9BB243F061
:104100004003638303B0BDE8F08300BF00180240A2
:1041100030B58BB00024069407940894099406A83F
:1041200000F076FD00948DF8044001258DF80550CF
:104130000294039404948DF81450684600F05EFDD8
:1041400004F1804404F590346946204600F02EFDC9
:1041500007232A460821204600F07CFD29462046F8
:1041600000F0C6FD2946204600F068FD0BB030BDCA
:1041700030B587B00121022000F02AFA02238DF821
:1041800014308DF8153001248DF816408DF8174045
:1041900021464FF4001000F045FA06A94FF41073C1
:1041A00041F8083D454D284602F0DCFD0422062179
:1041B000284602F02BFE04220921284602F026FEA2
:1041C000A5F5D835284606F039FD2146284606F0E3
:1041D00019FEFF23013BFDD1394C0021204606F09A
:1041E00011FE384B00930023ADF804304BF6FF73FB
:1041F000ADF80630D023ADF808304FF48063ADF849
:104200000A304FF48043ADF80C306946204606F082
:1042100047FD0121204606F0B3FD02238DF814303E
:104220008DF8153001248DF816408DF81740214681
:104230004FF4800000F0F6F906A94FF4406341F80E
:10424000083D1E4D284602F08DFD04220A21284615
:1042500002F0DCFD04220B21284602F0D7FDA5F573
:10426000D635284606F0EAFC2146284606F0CAFD67
:10427000FF23013BFDD1144C0021204606F0C2FD76
:10428000124B00930023ADF804304BF6FF73ADF8EA
:104290000630D023ADF808304FF48063ADF80A3013
:1042A0004FF48043ADF80C306946204606F0F8FC28
:1042B0000121204606F064FD07B030BD0004024035
:1042C00000540040400D030000580040801A0600D2
:1042D000F0B587B003F094F8FFF7A2FCFFF71AFDE2
:1042E000FFF742FD534A138B9BB243F04003138305
:1042F000A2F50062136913F4805FFBD1FFF75AFC4B
:1043000008F0BAFF02F0CCFD012006F0B9FD042050
:104310000EF00CFEFFF72CFF03F05CFBFFF75CFCDC
:10432000FFF7EEFBFEF7DEFC5020FFF7B9FB0022A3
:104330004149424806F0ACF8414B1870414B1B69AB
:1043400013F4804F29D100223B493C4806F0A0F8E5
:104350004FF4A0730093E223002211463A48FFF77E
:1043600059FB3A4B00933A4B3A4A01213A48FFF73E
:104370007FFA3A4B1B6913F4805F0ED1384E00254B
:10438000364C3560238B9BB243F480732383FFF755
:10439000ABF8236913F4805FF3D01AF0F1FA01202F
:1043A00010F0B6FC0EF042F801214FF4807000F0DE
:1043B00047F90125049503238DF8143002238DF865
:1043C000173004A9254802F0CDFCFFF7A1FE002418
:1043D00003940294234B01930727009723464FF43D
:1043E00080522149214800F047FD214B00932B4684
:1043F0002A4614211F4800F07BFA1F4E30600394B8
:1044000002941E4B0193009723464FF400721C49FF
:104410001C4800F031FD366800F0B6FE00942346DB
:1044200002462946304600F089FA00F06BFE20462D
:1044300007B0F0BD000C02403C1C030870EC0020EB
:10444000B2D70020001802402C1E03082C000020C8
:104450006800002028010020C00301200004024061
:10446000541B012080E50020381E030885DE00086B
:1044700065390008401E0308E8E3002024E000201E
:10448000481E0308CD3800080122014B5A707047BE
:10449000B2D700200122014B9A707047B2D700209A
:1044A00070B506460D460124204606F0FFFC0028A4
:1044B000FAD006F0F5FC0446012006F001FDB4FB3D
:1044C000F5F005FB1040304470BD00BFFEE700BFB3
:1044D000FEE700BF084B00221A701A70012802D0B4
:1044E000042804D070470122034B1A70704705223C
:1044F000014B1A70704700BF7038024010B4224B55
:104500009B6803F00C03042B05D0082B06D0EBB9F5
:104510001E4B03601CE01D4B036019E01A4B5A68E8
:104520005B6803F03F03184A5268C2F388121749C8
:10453000B1FBF3F303FB02F2134B5B68C3F30143DC
:1045400001335B00B2FBF3F3036001E00F4B036048
:104550000D4CA368C3F303130D49CB5CDAB20368B7
:10456000D3404360A268C2F382228A5CD2B223FAAB
:1045700002F28260A268C2F342328A5CD2B2D340B5
:10458000C3605DF8044B7047003802400024F4001B
:10459000C800002000F44073B3F5407F09D10849FA
:1045A0008B6823F4F81320F0704222F44072134316
:1045B0008B60034A136FC0F30B00184310677047FA
:1045C00000380240014B1860704700BF3C0E474264
:1045D00021B1054B1A6B104318637047024A136BE5
:1045E00023EA0000106370470038024021B1054BF8
:1045F0005A6B104358637047024A536B23EA00001A
:10460000506370470038024021B1054B9A6B10434C
:1046100098637047024A936B23EA000090637047E7
:104620000038024021B1054B1A6C104318647047E2
:10463000024A136C23EA00001064704700380240FD
:1046400021B1054B5A6C104358647047024A536CB1
:1046500023EA0000506470470038024021B1054B46
:104660001A6A104318627047024A136A23EA00006C
:10467000106270470038024021B1054B5A6A10435E
:1046800058627047024A536A23EA0000506270473A
:10469000003802404309012B02D1074B1B6804E09C
:1046A000022B054B0CBF1B6F5B6F00F01F0023FA42
:1046B00000F000F00100704700380240024A536FDA
:1046C00043F08073536770470038024008B5044BCD
:1046D0001A6912F4805FFBD0FBF756FDFEE700BFBE
:1046E0000004024080B582B0114B1B6913F4805F57
:1046F00002D0FBF749FDFEE7DFF83C80FF240C4FBA
:1047000002260196002500952346052204214046F5
:1047100002F080FD019600952346062204210548FB
:1047200002F078FD3B6913F4805FE9D0E1E700BF58
:1047300000040240601E0308541E030880B582B0C6
:10474000114B1B6913F4805F02D0FBF71DFDFEE7E0
:10475000DFF83C804FF47F040B4F022601960025C2
:104760000095234609220421404602F053FD01969C
:10477000009523460A220421044802F04BFD3B69C0
:1047800013F4805FE9D0E0E700040240781E0308DC
:104790006C1E030808B5044B1A6912F4805FFBD045
:1047A000FBF7F2FCFEE700BF0004024008B5044B33
:1047B0001A6912F4805FFBD0FBF7E6FCFEE700BF4E
:1047C0000004024008B5044B1B6913F4805F02D05B
:1047D000FBF7DAFCFEE708BD0004024008B5064816
:1047E000FBF794FF18B1044809F006FC08BD024825
:1047F00004F010FA08BD00BFC003012008B503F0A3
:104800007DFA08BD08B54160006191420AD8D21A0C
:1048100083699A4211D2011D0A4B186802F0C4FD47
:10482000002008BD9A4201D2994208D2011D054BD1
:10483000586802F0B9FD002008BD012008BD012024
:1048400008BD00BFB8D7002070B504F0A7F8134B1F
:104850009B68FBB9114C04F10C06304602F088FD50
:1048600004F12005284602F083FD666025600022E1
:104870000C210A2003F0BAFDA06040B94FF0F0030C
:1048800083F31188BFF36F8FBFF34F8FFEE70449A7
:1048900003F0F4FF04F0A4F870BD00BFB8D7002007
:1048A000881E030800B585B0FFF7CEFF0D4B9B684F
:1048B00063B100230393029301930B2200924FF400
:1048C00000720949094800F0D7FA40B94FF0F003E7
:1048D00083F31188BFF36F8FBFF34F8FFEE705B0EF
:1048E0005DF804FBB8D70020901E0308294A000891
:1048F000C1B12DE9F0410F461D46164680462820DD
:10490000FBF79CFC0446B0B1FFF79EFFC4F80080A3
:10491000A761E6612562069B6362201D02F034FDFB
:1049200009E0FEE74FF0F00383F31188BFF36F8FC8
:10493000BFF34F8FF5E72046BDE8F08130B585B075
:10494000104CA568D5B11C4601910292039005292F
:104950000DDC00F0CBFE02284FF000030CBF089ADC
:104960001A4601A90748806803F074FD07E0002398
:10497000224601A9284603F05BFE00E0002005B0B6
:1049800030BD00BFB8D700202DE9F04782B0074600
:1049900000F0FAFB0646234B5B6B98423AD22BE0C1
:1049A000DB68D3F800A0DC6804F10409484602F093
:1049B00015FD636A20469847E369012B1FD1A3695F
:1049C00053449A4506D2636024614946686802F000
:1049D000EBFC14E0CDF800804346524641462046A9
:1049E000FFF7ACFF58B94FF0F00383F31188BFF322
:1049F0006F8FBFF34F8FFEE70A4D4FF000086B68D3
:104A00001A68002ACCD1074A11685160136001234B
:104A10003B6001E000233B60024B5E63304602B026
:104A2000BDE8F087B8D700202DE9F04387B05D4C92
:104A30000026DFF8748163681A68002A00F0A880F5
:104A4000DB681F6800F096FB03A8FFF79DFF054693
:104A5000039B002B40D187422ED800F01FFC6368D7
:104A6000DB68D3F80C9009F1040002F0B7FCD9F828
:104A70001C30012B1AD1D9F818103B462A4639446C
:104A80004846FFF7BFFE012810D1009633463A464C
:104A900031464846FFF752FF40B94FF0F00383F329
:104AA0001188BFF36F8FBFF34F8FFEE7D9F8243023
:104AB0004846984712E03746791BA06803F0F8FE95
:104AC00000F0ECFB50B94FF08053C8F80030BFF352
:104AD0004F8FBFF36F8F01E000F0E0FB03AD4EE0BE
:104AE000039B002B4BDB059F7B6913B1381D02F044
:104AF00075FC02A8FFF748FF039B092B3FD8DFE8AE
:104B000003F00505053E283B05053E2804990B46A4
:104B10000246B86901443846FFF774FE01282ED1D9
:104B20007B6A38469847FB69012B28D1BA69009601
:104B3000334604990A4431463846FFF7FFFEF0B980
:104B40004FF0F00383F31188BFF36F8FBFF34F8FE4
:104B5000FEE70499B96141B94FF0F00383F311887E
:104B6000BFF36F8FBFF34F8FFEE70346024601444A
:104B70003846FFF747FE02E03846FBF7FBFB3346BB
:104B800032462946A06803F0B7FD0028A8D152E7B5
:104B900000F0F0FA03A8FFF7F7FE0546039B002B91
:104BA00089D099E7B8D7002004ED00E010B443683D
:104BB00023F0407222F480720B6813430A7943EAAF
:104BC0000223436084680A69CB681A438B681A43DE
:104BD000094B234013434A7943EA42038360C36A83
:104BE00023F470020B7D013BDBB242EA0353C36244
:104BF0005DF8044B704700BFFDF7FFC00023036062
:104C0000037143718360C3600361012303757047BF
:104C100010B4084C6268084B1340016842681143A5
:104C200082681143C2680A43134363605DF8044B12
:104C3000704700BF00230140E030FCFF21B18368D2
:104C400043F0010383607047836823F001038360AE
:104C5000704700BF70B409290DD9C668A1F10A04D4
:104C600004EB44040725A54026EA050503FA04F4ED
:104C70002C43C4600AE0066901EB41040725A54006
:104C800026EA050503FA04F42C430461062A0CD82D
:104C9000446B013A02EB82021F23934024EA030390
:104CA00001FA02F21A4342631AE00C2A0CD8046B90
:104CB000073A02EB82021F23934024EA030301FA1E
:104CC00002F21A4302630BE0C46A0D3A02EB82025D
:104CD0001F23934024EA030301FA02F21A43C2623B
:104CE00070BC7047836843F080438360704700BFA7
:104CF00021B1836843F4806383607047836823F441
:104D000080638360704700BFC06C80B2704700BF93
:104D10000368194214BF012000207047002070472B
:104D20000020704700B583B031238DF80430002394
:104D30008DF805308DF8063001238DF8073001A875
:104D400006F0D6F808F08AF8003018BF012040427B
:104D500003B05DF804FB00BF38B50C46154607F0FC
:104D60008FFE50B94FF400732B60054A936CD26CE0
:104D70005B0A43EAC253236000E0FF2040B238BD23
:104D8000D80D002008B50A4B93F90030002B04DA47
:104D900008F064F80022064B1A7007F071FE18B193
:104DA000FF20034B187000E0002040B208BD00BF98
:104DB000F0D7002000B583B001934FF40073009347
:104DC0000023084607F0C2F920B907F059FE002871
:104DD000FBD100E0FF2040B203B05DF804FB00BF50
:104DE00000B583B001934FF400730093002308468D
:104DF00007F056FB20B907F043FE0028FBD100E086
:104E0000FF2040B203B05DF804FB00BF084B9B6A73
:104E10001B6823B94FF0FF32064B1A607047044BF2
:104E20009B6ADB68DB685A68024B1A60704700BFF8
:104E3000F8D70020FC00002010B50D4BDA6A506056
:104E40001B6B984206D20A4B586BD96A043102F0A8
:104E5000ABFA10BD0446064B986AD96A043102F0D9
:104E6000A3FA044B1B689C423CBF024B1C6010BD64
:104E7000F8D70020FC0000202DE9F04F83B00C9FF4
:104E8000DDF834B00E9D40B94FF0F00383F3118884
:104E9000BFF36F8FBFF34F8FFEE70B2F08D94FF093
:104EA000F00383F31188BFF36F8FBFF34F8FFEE7DB
:104EB0000190994690460E4635B99000FBF7BEF931
:104EC0000546002800F0B6805420FBF7B7F90446E9
:104ED00068B1056308F18043013B05EB830525F0CC
:104EE0000705337880F83430337823B90FE028464B
:104EF000FBF740FA9EE0334600F134020F3613F818
:104F0000011F02F8011F197809B1B342F7D14FF020
:104F1000000884F843803E460B2F28BF0B26E6622C
:104F20006664C4F8488004F1040A504602F02CFA82
:104F300004F1180002F028FA2461C6F10C06A661FB
:104F40006462C4F84C8084F850804A46019928462F
:104F500003F000FD2060BBF1000F01D0CBF8004052
:104F600003F01CFD364B9A6B01329A63DB6A4BBB34
:104F7000334BDC629B6B012B2FD1314B03F13C0691
:104F800003F59675304602F0F3F91436AE42F9D1C6
:104F90002B4D05F59678404602F0EAF905F5A07626
:104FA000304602F0E5F905F1140002F0E1F905F5EB
:104FB000AA7002F0DDF9284602F0DAF9C5F8288077
:104FC0006E630AE01E4BD3F8683133B91C4BDB6AC1
:104FD000DB6A9F4224BF1A4BDC62194DD5F86C3155
:104FE0000133C5F86C31E36A1648426801219940E3
:104FF0000A43426005F13C0003EB8303514600EB9A
:10500000830002F0C5F903F0EBFCD5F868316BB111
:10501000EB6ADB6A9F420BD94FF080520A4B1A6051
:10502000BFF34F8FBFF36F8F012005E0012003E036
:10503000012001E04FF0FF3003B0BDE8F08F00BF6A
:10504000F8D70020FC00002004ED00E070B5044615
:1050500003F0A4FC0CB9284BDC6A261D304602F094
:10506000BDF970B9E16A01EB8102234B03EB8203C6
:10507000DB6B33B92148436801228A4023EA0203EB
:105080004360A36A1BB104F1180002F0A7F91A4D9E
:10509000314605F5AA7002F07BF9D5F8703101337D
:1050A000C5F87031D5F86C310133C5F86C3103F0B7
:1050B00097FCD5F86831EBB1EB6A9C4214D1D5F876
:1050C000743143B14FF0F00383F31188BFF36F8F56
:1050D000BFF34F8FFEE74FF08052094B1A60BFF3CA
:1050E0004F8FBFF36F8F70BD03F058FCFFF78EFE3C
:1050F00003F076FC70BD00BFF8D70020FC00002054
:1051000004ED00E000B585B0002303930293019302
:10511000012200924FF4007213491448FFF7ACFECD
:10512000012814D1FFF7BEFB012810D14FF0F00386
:1051300083F31188BFF36F8FBFF34F8F0C4B0122A6
:10514000C3F8682100221A6303F0BEFC09E040B9ED
:105150004FF0F00383F31188BFF36F8FBFF34F8FCE
:10516000FEE705B05DF804FBBC1E03080954000807
:10517000F8D70020034AD2F874310133C2F87431F1
:10518000704700BFF8D70020014B186B704700BF75
:10519000F8D700202DE9F0473E4BD3F87431002BAF
:1051A00067D13C4B1A6B01321A631F6BBFB99B6A04
:1051B0001B6843B14FF0F00383F31188BFF36F8F87
:1051C000BFF34F8FFEE7334B9A6A596B99625A636C
:1051D000D3F878210132C3F87821FFF717FE2E4B60
:1051E0001B689F4201D2002437E00024294EDFF8DB
:1051F000A88006F13C0AB36A1B6823B94FF0FF325E
:10520000254B1A6029E0B36ADB68DD686B689F4252
:1052100002D2214A136020E005F10409484602F059
:10522000DDF8AB6A1BB105F1180002F0D7F8E86AA7
:10523000D8F80430012282401343C8F8043000EB50
:10524000800049460AEB800002F0A2F8F36AEA6A9D
:10525000DB6A9A4228BF0124CDE70E4BDA6AD26A94
:1052600002EB820203EB8203DB6B022B28BF0124DB
:1052700006E0084AD2F87C310133C2F87C310024C0
:10528000044BD3F88031002B0CBF20460120BDE831
:10529000F08700BFF8D70020FC0000203A4BD3F87D
:1052A000743143B94FF0F00383F31188BFF36F8F6C
:1052B000BFF34F8FFEE72DE9F04103F06FFB324B58
:1052C000D3F87421013AC3F87421D3F87431002B58
:1052D00052D12D4B9B6B0BBB002450E0236ADD6841
:1052E00005F1180002F07AF82F1D384602F076F822
:1052F000E86A7368012282401343736000EB800008
:10530000394608EB800002F043F8E36AEA6ADB6A98
:105310009A4207D30123C4F8803103E01A4C1B4E94
:1053200004F13C086369002BD8D1174BD3F87C31CA
:105330009BB1154BD3F87C317BB1134C0125FFF7A2
:1053400029FF08B1C4F88051D4F87C31013BC4F87E
:105350007C31D4F87C31002BF1D10B4BD3F8803168
:10536000012B0BD14FF08052094B1A60BFF34F8FC6
:10537000BFF36F8F012402E0002400E0002403F05B
:105380002FFB2046BDE8F081F8D70020FC0000206C
:1053900004ED00E010B538B30446184BD3F874316F
:1053A00043B14FF0F00383F31188BFF36F8FBFF366
:1053B0004F8FFEE7FFF7DEFE104B1A6B1444D86ADE
:1053C000043002F00BF848B90C4BDA6A0C494B6810
:1053D000D06A0122824023EA02034B602046FFF795
:1053E0002BFDFFF75BFF38B94FF08052054B1A6079
:1053F000BFF34F8FBFF36F8F10BD00BFF8D70020F2
:10540000FC00002004ED00E008B5144C1EE0FFF79E
:10541000B1FED4F85451FFF741FFBDB103F0BEFA1D
:10542000D4F86031DD68281D01F0D8FFA36B013B83
:10543000A363D4F87031013BC4F8703103F0D0FAA3
:10544000286BFAF797FF2846FAF794FFD4F87031E3
:10545000002BDCD1FFF73CF8F8E700BFF8D70020BD
:10546000204BD3F8743123B101221E4BC3F88021A5
:1054700070471C4A0023C2F880311B4B5B68B3FAAB
:1054800083F3DBB2C3F11F0303EB830102EB810261
:10549000D26B42B94FF0F00383F31188BFF36F8FE3
:1054A000BFF34F8FFEE710B40E4A9900C81802EB05
:1054B0008000046C6468046402464432944206D15D
:1054C000606803EB8301074A02EB81021064054A1E
:1054D00003EB830302EB83031B6CDB68D3625DF891
:1054E000044B7047F8D70020FC00002038B540B9C5
:1054F0004FF0F00383F31188BFF36F8FBFF34F8F2B
:10550000FEE70C46104DE96A183101F04DFFE86ADC
:10551000043001F063FF40B9EA6A0C494B68D06A75
:105520000122824023EA02034B60B4F1FF3F05D120
:105530000548C16A043101F02BFF38BD024B186BDE
:105540002044FFF779FC38BDF8D70020FC0000208C
:1055500038B540B94FF0F00383F31188BFF36F8F74
:10556000BFF34F8FFEE70C460C4DE96A183101F08E
:105570000FFFE86A043001F031FF40B9EA6A0849D8
:105580004B68D06A0122824023EA02034B60034B3E
:10559000186B2044FFF750FC38BD00BFF8D700203F
:1055A000FC00002038B5C368DC6844B94FF0F00354
:1055B00083F31188BFF36F8FBFF34F8FFEE704F1C2
:1055C0001805284601F00AFF134BD3F874319BB934
:1055D000251D284601F002FFE06A10494B680122B0
:1055E000824013434B6000EB800029460C4B03EBD9
:1055F000800001F0CDFE03E029460A4801F0C8FE14
:10560000054BDB6AE26ADB6A9A4283BF0120024BE8
:10561000C3F88001002038BDF8D70020FC0000202E
:1056200034D800200CD8002040B94FF0F00383F3A9
:105630001188BFF36F8FBFF34F8FFEE7034AD2F895
:1056400078110160126B4260704700BFF8D70020EC
:1056500038B540B94FF0F00383F31188BFF36F8F73
:10566000BFF34F8FFEE7044641B94FF0F00383F3D9
:105670001188BFF36F8FBFF34F8FFEE70D4603F026
:105680008DF9124B196B2B68B3F1FF3F14D00F4A01
:10569000D2F878212068904202D0626891420DD2FF
:1056A0006268881A83420BD9521A13442B60204631
:1056B000FFF7BAFF002404E0002402E0012400E028
:1056C000012403F08DF9204638BD00BFF8D7002033
:1056D0000122024BC3F88021704700BFF8D7002099
:1056E000014BD86A704700BFF8D70020064BD3F8AB
:1056F00068313BB1044BD3F87431002B0CBF02204E
:105700000020704701207047F8D70020002846D0BD
:1057100038B50346C26A2249C96AC96A8A423DD27B
:105720008169002905DB1E49C96AC96AC1F10C01FA
:10573000816102EB82021B4901EB820259699142AD
:1057400028D11D461C1D204601F048FE78B9EA6AA2
:1057500002EB8201124B03EB8103DB6B3BB9124876
:105760004368012101FA02F223EA020242600C4876
:10577000C36ADB6AEB620C4D696801229A400A43F6
:105780006A603C3003EB8303214600EB830001F0A9
:10579000FFFD38BD024AD26AD26ADA6238BD70476C
:1057A000F8D7002034D80020FC00002000284BD07F
:1057B00038B50346274AD26A904208D04FF0F0032A
:1057C00083F31188BFF36F8FBFF34F8FFEE7826CB7
:1057D00042B94FF0F00383F31188BFF36F8FBFF32B
:1057E0004F8FFEE7013A8264C06A596C88422DD01F
:1057F00072BB1C461D1D284601F0F0FD70B9E16A20
:1058000001EB8102134B03EB8203DB6B33B91248CC
:10581000436801228A4023EA02034360606CE0622D
:10582000C0F10C03A3610C4A5368012404FA00F18F
:105830000B43536000EB80002946084B03EB8000CC
:1058400001F0A6FD204638BD00207047002038BD7D
:10585000002038BDF8D70020FC00002034D80020FC
:10586000054BDB6A23B1044BDA6A936C0133936412
:10587000014BD86A704700BFF8D70020094B1B784E
:10588000094800F8331000EBC300120242600133F4
:10589000DBB2042B02D0034A137070470022014B85
:1058A0001A7070478C1B0120681B012070B582B0F4
:1058B0000E461546934B186013785A2B00F2A682B9
:1058C000DFE813F05B00A402A4027800A402A402A3
:1058D000A402A402A402A402A402A402A402A40298
:1058E000A402A402A402A402AB00A402A402A40283
:1058F000A402A402A402A402D500CB00A402A40224
:10590000D000A402A402A402A402EF00A402360163
:10591000A402A4025F01A402DD01A402A402A40265
:10592000A4027B02A402A402A402A402A402A40270
:10593000A402A402A402A402A402A402A402A40237
:10594000A402A402A402A402A402A402A402A40227
:10595000A402A402A402A402A402A402A402A40217
:10596000A402A402A402A402A402A402A402A40207
:10597000A402A402A402A402E200634B9B683BB110
:1059800020220521604B587BFFF778FFFF246CE253
:105990005E4B1B689B6808469847044630B13A2224
:1059A00002213046FFF76AFFFF245EE20022584BD7
:1059B0001A805AE2574B03F11201002203F8012F1B
:1059C0009942FBD1544B70221A700C22DA71534B5E
:1059D0001B78534A12789A4214D04F49514A12F810
:1059E0003300887002EBC3025079087312794A734E
:1059F0000133DBB2042B02D0484A137002E00022CC
:105A0000464B1A701222424B1A802B79934200F2B5
:105A100004823F4A1380002427E26B7813F0010FC1
:105A200040F00182394B1B6801EBC106DB6903EBD7
:105A3000860633792A790533934228BF1346344AC0
:105A40001380002B00F0EB813349013B9BB2F25CE9
:105A5000CA54002BF9D1002407E200202C4B1880F7
:105A6000044602E200202A4B18800446FDE1082388
:105A7000274A138028482C49013B9BB2CA5CC25478
:105A8000002BF9D10024F0E10823214A1380224899
:105A90002649013B9BB2CA5CC254002BF9D10024B9
:105AA000E3E11D4B03F10C01002203F8012B8B42B3
:105AB000FBD1164B1B685B686A4601A930469847C4
:105AC000044630B13A2202213046FFF7D7FEFF24C8
:105AD000CBE1114B0822DA7001994A1E100E1871A1
