:020000040800F2
:1000000048D3012069330008E1440008FD4400089A
:100010005D450008BD450008D94500080000000006
:10002000000000000000000000000000FD84000847
:10003000F5450008000000008D850008ED850008EA
:1000400049330008493300084933000849330008A0
:100050004933000849330008493300084933000890
:100060004933000849330008493300084933000880
:100070004933000849330008493300084933000870
:100080004933000849330008493300084933000860
:10009000493300084933000849330008C575000892
:1000A0004933000849330008493300084933000840
:1000B000BD390008354600084933000849330008B7
:1000C0004933000849330008493300084933000820
:1000D0004933000849330008493300084933000810
:1000E00049330008A93B0008493300084933000898
:1000F00049330008493300084933000849330008F0
:1001000049330008D9C600084933000849330008BC
:1001100049330008493300084933000849330008CF
:1001200049330008493300084933000849330008BF
:1001300049330008493300084933000849330008AF
:1001400049330008493300084933000815460008C0
:10015000493300084933000849330008493300088F
:10016000493300084933000849330008493300087F
:10017000493300084933000849330008493300086F
:100180004933000849330008134B00E013461A684E
:100190008242FBD310B459685C18A04203D1406876
:1001A000014459601846446801198A420CD10A4A30
:1001B0009268914206D04A68144444601A681268F2
:1001C000026002E0016000E00260984218BF18601F
:1001D0005DF8044B704700BF000E0020F8B50446E0
:1001E00004F02CFE484B9B6823BB484A12F0070FD3
:1001F00007D0D11D21F0070102F548435B1A0A46DA
:1002000001E04FF44843404802600021416013443C
:10021000083B23F00703836059601960991A516005
:1002200013603B4BC3F8641DC3F8681D4FF00042D8
:10023000C3F86C2D364BD3F86C7D27425BD1002C74
:100240005CD004F1080313F0070F1CBF23F0070371
:100250000833002B4FD02E4AD2F8686DB3424AD8EB
:10026000294A146801E022460C4661688B4202D993
:1002700021680029F7D1244989688C423BD0156850
:10028000216811606268D21A102A10D9E01810F0A3
:10029000070F08D04FF0F00383F31188BFF36F8F7F
:1002A000BFF34F8FFEE742606360FFF76DFF626848
:1002B000B31A1749C1F8683DD1F8641D8B423CBFA1
:1002C0001349C1F8643D08353A4362600023236056
:1002D00004F048FE1DB903F0EBFF002511E015F016
:1002E000070F0ED04FF0F00383F31188BFF36F8F29
:1002F000BFF34F8FFEE704F035FEECE704F032FE6B
:10030000E9E72846F8BD00BF000E00200C0E0020D3
:10031000A8C8002090B310B5044650F8043C184A11
:10032000D2F86C2D134208D14FF0F00383F31188FB
:10033000BFF36F8FBFF34F8FFEE750F8081C41B13A
:100340004FF0F00383F31188BFF36F8FBFF34F8F2C
:10035000FEE723EA020340F8043C04F06FFD084A7C
:1003600054F8041CD2F8683D0B44C2F8683DA4F16F
:100370000800FFF709FF04F0F5FD10BD704700BF4E
:10038000A8C80020C3684FF0FF325A60C3686FF0FE
:1003900080425A61C368014A9A6170470008008030
:1003A00070B582B0054600230193032007F05AFA86
:1003B000EB681A690192134C032607E0304607F0F8
:1003C00051FAEB681A690192013C18D0019A002A8F
:1003D000F4DA019A42F001020192019A1A61E96885
:1003E0000B690193074B03E00A690192013B03D0BB
:1003F000019A12F0010FF7D1032007F033FA002021
:1004000002B070BD400D030010B4C4786CB9033362
:1004100000EB8200D0F8D0409B1006D0002251F8AB
:10042000040B206001329342F9D100205DF8044BA7
:10043000704700BF70B40332D0F8D060921009D07A
:100440000C460023356844F8045B01339A42F9D125
:1004500001EB8201084670BC704700BF70B40023F6
:10046000C370012383704023838001290DD10123B0
:10047000C37208230370042343704FF4A073C38036
:10048000022303724FF0A0460CE051B90023C3725F
:100490000C230370062343704FF4A063C380234EE4
:1004A00000E00026C66006F500630361457895B15B
:1004B00006F5106300F1140100F1500206EB45153A
:1004C00005F5106541F8043F03F5007442F8044F48
:1004D0002033AB42F6D106F58063436106F58863AD
:1004E000C0F8CC300178D1B106F5A06300F18C02E0
:1004F00006EB411404F5A06442F8043F2033A34204
:10050000FAD106F5805300F1CC0206EB013101F57A
:10051000805142F8043F03F580539942F9D106F522
:100520006066C0F80C61002070BC70470000044099
:1005300038B50446037A012B22D10025C268936B9B
:100540006FF31043417A09B143F480139363E26877
:10055000D3686FF386136FF396536FF351436FF3C2
:10056000D343D3602046FFF71BFFE378012B25D14F
:10057000052363F3440545F02005E3689D6012E020
:10058000C268D36843F04003D360FFF709FF637A82
:10059000002B0CBF4FF450234FF4E813E268936331
:1005A000142007F065F9E378012B07D1E3689D6813
:1005B000052262F3440545F020059D60002038BD0A
:1005C000C268936843F0010393600020704700BF46
:1005D000C268936823F0010393600020704700BF56
:1005E00000B583B000230193019B43F020030193E6
:1005F000019B61F38A130193C368019A1A61C16870
:100600000B690193084B03E00A690192013B03D097
:10061000019A12F0200FF7D1032007F023F90020F0
:1006200003B05DF804FB00BF400D030000B583B0CC
:1006300000230193019B43F010030193C368019AC7
:100640001A61C1680B690193084B03E00A690192C2
:10065000013B03D0019A12F0100FF7D1032007F0ED
:1006600001F9002003B05DF804FB00BF400D03005A
:1006700008B5C268D3686FF35D736FF39E73012989
:1006800002D143F0005302E009B943F08043D36044
:10069000322007F0EDF8002008BD00BFC3685B6999
:1006A00013F0010F0CBF012000207047C368586988
:1006B00000F00100704700BFC36858699B6918408B
:1006C000704700BF4269136861F30103136070470C
:1006D000D0F8CC30186820F02E0070474369586974
:1006E000704700BF38B50546FFF7F2FF40F480744D
:1006F000D5F8CC301C600A2007F0BAF86FF3082454
:10070000D5F8CC301C60142007F0B2F8012038BDB9
:1007100086B000EB8101D1F89020136843F040438C
:1007200013F4802F07D1C168C96AC1F3074149B9E1
:100730006FF3DF7306E041690969C1F3074109B945
:100740006FF3DF731360002006B0704710B400220F
:100750004FF00043012464F3DC4300EB8101D1F846
:1007600090000361D1F890100B6843F0004362F3EE
:100770009E730B6010465DF8044B70470269136866
:1007800061F301031360704738B505460024C36860
:100790009C61C3686FF080425A61FFF7F3FDEB780C
:1007A000A34208BF102444F0804444F4701444F47D
:1007B000605444F00C04EA6893691C43946100207F
:1007C00038BD00BF70B504460025D0F80C311D605F
:1007D0000269136865F3CC231360C37A012B20D11F
:1007E0002E460321FFF7CAFFE26880235362C0F25E
:1007F000400563F30F05E2689562C02262F30F06BD
:1008000063F31F46E368C3F804614FF4A07363F316
:100810000F066FF31F46E368C3F80861E368C3F887
:100820000C6110212046FFF7DBFE2046FFF7FEFE9D
:100830002269002313612269536122694FF0FF315D
:1008400091612269D3616378002B38D004F11402DE
:1008500000210E46FF2552F8043F1B68C3F30763CF
:1008600023F07F03DBB2002B0CBF00204FF0904041
:100870001368186013681E6113689D600131637806
:100880008B42E8D8DBB104F1500200210E46FF256F
:1008900052F8043F1B68C3F3076323F07F03DBB206
:1008A000002B0CBF00204FF09040136818601368B5
:1008B0001E6113689D60013163788B42E8D822691C
:1008C000136943F480731361E378012B09D1032387
:1008D000402262F38A0343F4803362F3594322696E
:1008E00013632046FFF750FF002070BD03699B682B
:1008F000C3F34103022B04D001D8012B03D1022002
:100900007047012070470320704700BF03699B6850
:1009100082691168C3F34103022B12BF6FF30A010E
:10092000032363F30A0111600269536843F480737F
:1009300053600020704700BF30B400244B78012B77
:1009400008D10D7800EB85039A690123AB4063F36E
:100950000F0407E00D7800EB85035A6D0123AB40CF
:1009600063F31F44136813F4004F0DD18D6865F3D2
:100970000A03CD7865F39343C98861F3995343F033
:10098000805343F4004313600269D3692343D36166
:10099000002030BC704700BF30B4002214464B78B2
:1009A000012B08D1097800EB81039D6901238B405D
:1009B00063F30F0407E00B7800EB83014D6D012119
:1009C000994061F31F446FF3CF322A600269D36903
:1009D00023EA0403D361002030BC704770B54B7824
:1009E000012B52D10B7800EB83039B691A681C69B9
:1009F0004B692BB96FF31204012363F3DC440DE060
:100A000063F312048D682B44013BB3FBF5F363F3EE
:100A1000DC44CB78012B08BF63F35E740B7800EBEA
:100A200083039B691C61C378012B06D10B7800EB13
:100A300083039B690C695C610BE0CB78012B0BD0C5
:100A40004B6993B105696C6B0E780123B340234366
:100A50006B63CB78012B08D103699B6813F4807F0B
:100A60000CBF42F0005242F0805242F004420B7838
:100A700000EB83039B691A60CB78012B40D18B8AF2
:100A80000A78C968FFF7C0FC3AE00B7800EB8303F3
:100A90005B6D1A681C694B6933B98B6863F3120488
:100AA000012363F3DC440CE08D682B44013BB3FB72
:100AB000F5F3C3F3090363F3DC4405FB03F363F3CA
:100AC00012040B7800EB83035B6D1C61C378012B70
:100AD00005D10B7800EB83035B6D0C695C61CB780F
:100AE000012B06D14B7913B142F0005201E042F0E4
:100AF000805242F004420B7800EB8300436D1A6091
:100B0000002070BD30B482B04B78012B47D1826990
:100B10001368146900944C696CB99DF800406FF338
:100B200006048DF800409DF80240012565F3C404D9
:100B30008DF8024017E08D68AC4207D94D619DF8F1
:100B4000004065F306048DF8004005E09DF8005074
:100B500064F306058DF800509DF80240012565F309
:100B6000C4048DF80240009C1461C478012C05D1A6
:100B70000C7800EB8404A4690D69656143F00443BB
:100B80001360C378002B47D14B69002B44D0006918
:100B9000426B097801238B40134343633CE00B789D
:100BA00000EB83035A6D1368126900924A6972B9A7
:100BB0008C689DF8002064F306028DF800209DF8F3
:100BC0000220012464F3C4028DF802200EE08C6838
:100BD0004C619DF8002064F306028DF800209DF81A
:100BE0000220012464F3C4028DF802200A7800EB8D
:100BF0008202526D009C1461C278012A05D10A78E4
:100C000000EB8202526D0C69546143F004430A7890
:100C100000EB8200426D1360002002B030BC7047D0
:100C20004B78012B0CD10B7800EB830082691368A1
:100C3000002BB8BF43F0804343F40013136007E078
:100C40000B7800EB8300426D136843F400131360CC
:100C5000002070474B78012B0B7800EB83000CBF12
:100C60008069406D02686FF35552CB78023BDBB26E
:100C7000012B98BF42F0805202600020704700BFF5
:100C800003699869DB691840000C704700EB81012B
:100C90004B6D9A68036958691040704703699869F9
:100CA000DB69184080B2704782B000230093C023F4
:100CB0008DF803304FF00003012262F3C4038DF876
:100CC000023018238DF80030436D009A1A61C37802
:100CD000012B08D1436D00F2CC525A61436D1A6862
:100CE0004FF080221A6002B0704700BF836801395C
:100CF0000D2914D8DFE801F0090B0D0F13131311A0
:100D0000160707161616012070475868704798682E
:100D10007047D868704718697047986970474FF0F6
:100D2000FF307047002070470129024818BF00209B
:100D3000704700BF44120308826800230B804B8079
:100D4000D368013B8B801369013BCB80704700BFA8
:100D50000939072911D8DFE801F012040608100A42
:100D60000C0E084870470848704708487047084804
:100D70007047084870470848704700207047074888
:100D8000704700BF710E0008390E0008210E0008E0
:100D9000D10D0008C10D0008A10D0008890E000842
:100DA00000B583B0002301938DF8041000926A46C9
:100DB0000421806902F08EF803B05DF804FB00BFE7
:100DC00008B500220621806902F084F808BD00BF42
:100DD00008B500220521806902F07CF808BD00BF3B
:100DE00000B583B0009101926A460321806902F048
:100DF00071F803B05DF804FB38B50446836853B955
:100E00001C201EF029FA0546A06023699B689847BC
:100E100019F0C4F8A861A068B0FA80F0400938BDA4
:100E200038B50546FFF7E8FF044600220121A8690E
:100E300002F050F8204338BD70B582B005460C462C
:100E40001646002300930193FFF7D6FFAB686BB102
:100E50005A69002A08BF22465A615C609E6000946D
:100E600001966A460721A86902F034F802B070BD05
:100E700070B505460C461646FFF7BEFFAB6813B1CA
:100E8000DC601E615C6170BD30B583B004460D4608
:100E900000230193FFF7B0FFA3683BB11D6002AAD6
:100EA00042F8045D0221A06902F014F803B030BDDD
:100EB00010B5084611461A0202F478045A0102F4E9
:100EC0007C422243DB00DBB21A4305F053FE10BD27
:100ED00008B5084611461346024605F06FFE2E225D
:100EE0004FF000431A70054A13781378137811787D
:100EF00010781B0243EA0143184308BD000001803B
:100F0000F8B504460D461646FFF7E2FF074623698B
:100F10009B68984787EA0003324629462046FFF738
:100F2000C7FFF8BD2DE9F0470746894615461E461E
:100F3000DDF820A0194B1B681A7C12F0010F05D1B7
:100F4000554528DCDB6BD3F800801FE055450CDDF0
:100F5000BDE8F0872A4621463846FFF7D1FF013425
:100F6000A642F7DA0135AA4515DBB145D8BF4C4694
:100F7000F0DDF7E743462A4621463846FFF798FF5B
:100F80000134A642F6DA0135AA4504DBB145D8BFE3
:100F90004C46EFDDF7E7BDE8F08700BF8802002090
:100FA00000B583B000930B46FFF7BCFF03B05DF8BC
:100FB00004FB00BF00B583B00092FFF7B3FF03B09E
:100FC0005DF804FB2DE9F04F87B00090019102938A
:100FD0001099DDF84CA0DDF854B0119B013B1F2B9C
:100FE00000F2C082DFE813F034003000BE022C00B3
:100FF000BE02BE02BE022800BE02BE02BE02BE0289
:10100000BE02BE02BE022400BE02BE02BE02BE027C
:10101000BE02BE02BE02BE02BE02BE02BE02BE02D0
:10102000BE02BE02BE022000002900F37D8299E2CA
:10103000002900F35A8295E2002900F3EF8191E242
:10104000002900F33E818DE2002900F38F8089E2C0
:10105000002940F3878203928B1805938027CDF8EF
:101060004CA0CDF854B0039B0493159BD3F8049087
:10107000019B149A9C18B14B1B681B7C03F0030363
:10108000032B67D8DFE803F0023E243E159BD3F81C
:1010900000B0029E149DDDF84CA02146049C01F195
:1010A00001089AF8002047FA05F31340002B0CBF03
:1010B0005B464B4622460098FFF7FAFE0135082DA5
:1010C00004BF0AF1010A00254146013EE7D141E093
:1010D000029E149DDDF84C8098F8002047FA05F335
:1010E0001A4205D04B46049A21460098FFF7E0FECD
:1010F00001340135082D04BF08F101080025013E27
:10110000EAD127E0009B1B699B6898478146029EB5
:10111000149DDDF84C8098F8002047FA05F31A4238
:101120000FD0DDF810B05A462146DDF800A0504639
:10113000FFF7CEFE89EA00035A4621465046FFF7E4
:10114000B7FE01340135082D04BF08F10108002560
:10115000013EE0D1139B129A13441393039B013376
:101160000393059A9A427FF47EAFFBE103928B18BA
:1011700005934FF0C008CDF84CA0039B0493139B3C
:101180001E78019B149A9C186C4B1B681B7C13F0F7
:10119000030302D0022B46D087E0BBF1000F22D020
:1011A000149D029FDDF84CA02146049CC5F1030369
:1011B0005A0001F10109C2F1060348FA03F3334072
:1011C000D3405BF8233022460098FFF771FE0135CB
:1011D000042D04D19AF801600AF1010A002549465C
:1011E000013FE3D161E0149D029FDDF84CA0214650
:1011F000C5F10302520001F10109C2F1060348FAE8
:1012000003F33340D340049A0098FFF751FE0135B1
:10121000042D04D19AF801600AF1010A002549461B
:10122000013FE5D141E0BBF1000F20D0149D029FAA
:10123000DDF84C90C5F103035A00C2F1060348FAE9
:1012400003F33340D34006D05BF82330049A2146A1
:101250000098FFF72DFE01340135042D04D199F8D3
:10126000016009F101090025013FE3D11DE0149D52
:10127000029FDDF84C90C5F103035A00C2F106034A
:1012800048FA03F33340D34004D0049A214600982F
:10129000FFF70EFE01340135042D04D199F80160E9
:1012A00009F101090025013FE5D1139B129A13446E
:1012B0001393039B01330393059A93427FF45DAF2D
:1012C00050E103928B1805934FF0F008CDF84CA035
:1012D000039B0493139B1E78019B149A9C18174B35
:1012E0001B681B7C13F0030302D0022B48D089E05B
:1012F000BBF1000F24D0149D029FDDF84CA02146C5
:10130000049CC5F101039A0001F10109C2F1040333
:1013100048FA03F33340D3405BF823302246009869
:10132000FFF7C6FD0135022D04D19AF801600AF1DC
:10133000010A00254946013FE3D163E0880200200D
:10134000149D029FDDF84CA02146C5F101029200D8
:1013500001F10109C2F1040348FA03F33340D34019
:10136000049A0098FFF7A4FD0135022D04D19AF8E4
:1013700001600AF1010A00254946013FE5D141E03B
:10138000BBF1000F20D0149D029FDDF84C90C5F1F9
:1013900001039A00C2F1040348FA03F33340D34037
:1013A00006D05BF82330049A21460098FFF780FDB1
:1013B00001340135022D04D199F8016009F10109C8
:1013C0000025013FE3D11DE0149D029FDDF84C9004
:1013D000C5F101039A00C2F1040348FA03F3334054
:1013E000D34004D0049A21460098FFF761FD0134F0
:1013F0000135022D04D199F8016009F10109002598
:10140000013FE5D1139B129A13441393039B0133BD
:101410000393059A93427FF45BAFA3E0129F019B75
:10142000CAEB03059046029B0AEB03068B18039355
:10143000CDF854B0BB46159FCDF804804B4B1B68CC
:101440001B7C13F0030302D0022B22D043E01FB910
:10145000029B002B11DC3EE0029B002B3BDDB146E2
:101460005446237857F82330019A61190098FFF702
:101470001FFD0134A145F4D12DE0B1465446237837
:10148000019A61190098FFF713FD01344C45F6D11C
:1014900021E02FB9029B002BC8BF544611DC1AE093
:1014A000029B002B17DD5446611914F8013B2BB148
:1014B00057F82330019A0098FFF7FAFCB442F3D1B1
:1014C00009E0611914F8013B1BB1019A0098FFF77C
:1014D000EFFCA642F5D1DA44CBEB050508F1010893
:1014E0005E44039B4345A7D13CE0914601EB0208D3
:1014F000029B019A9F18DDF800B04E46029B002B1C
:101500000BDD019C554635F8023B324621465846D4
:10151000FFF7CEFC0134A742F5D1129B9A4409F1A2
:101520000109C845E9D11DE0914601EB0208029B83
:10153000019A9F18DDF800B04E46029B002B0BDD90
:10154000019C554655F8043B324621465846FFF764
:10155000AFFC0134A742F5D1129B9A4409F101096D
:10156000C845E9D107B0BDE8F08F00BF8802002070
:1015700008B501214FF4006002F088FF00214FF40C
:10158000006002F083FF08BD10B40B4C62688168F4
:1015900043681943C368194303681943036919432E
:1015A00022F4FD4323F07F030B43027D134363606A
:1015B0005DF8044B704700BF002C0140014B1860E0
:1015C000704700BFA0802542014B1860704700BFE4
:1015D000002C0140024B186800F00300704700BF68
:1015E000002C014010B40368094A9360D36823F4C7
:1015F000FF6323F00703446881680C43C1680C4310
:10160000016921430B43D3605DF8044B704700BF71
:10161000002C0140014B1869C0B27047002C0140FA
:1016200082B000230193034B03440193019B18688C
:1016300002B07047142C014010B4036809494B6292
:1016400043688B62CB6A23F0F7028468C3681C434B
:1016500003692343406903431343CB625DF8044BA2
:10166000704700BF002C0140014BD3F88000704749
:10167000002C0140014BC3F880007047002C014052
:1016800021B1054BDA6B1043D8637047024AD36B24
:1016900023EA0000D0637047002C0140034B5B6BD2
:1016A000034214BF01200020704700BF002C0140FE
:1016B000014B9863704700BF002C0140034B5B6BEC
:1016C000034214BF01200020704700BF002C0140DE
:1016D000014B9863704700BF002C014038B50446A9
:1016E00003681D2B02D0262B2CD02FE0194940680F
:1016F0000DF012FB40F60B01606813F0E5FB0546A8
:1017000015490DF0D5FD6FF07F4128460DF068FDBD
:1017100040F60E01606813F0D7FB05460F490DF047
:10172000C7FDFF2128460DF05BFD0E2128460DF078
:1017300073FD40F61201606813F0C6FB4A210EF0FB
:1017400039F838BD806813F085FA38BD15F072FE9F
:1017500038BD00BF0707070020810308686503083C
:1017600000B583B013F0E4FB00230193009303461C
:10177000034A092103480FF0DBFF03B05DF804FBC7
:10178000DD16000898E002082DE9F04FADF2D44DC7
:1017900003F05EFB0024ADF8CE4406F0BFFE224607
:1017A000B84913A808F014FCB749A0A808F0A8FD90
:1017B000B64B1193FF23129300E001340BA9A0A8AC
:1017C00008F0E0FD18B99DF83530002BF5D10894EC
:1017D000E3B2AF4EA51E35441F4624E0DDF820805D
:1017E0004146002002F04EFD08F1FF33002B11DDD1
:1017F000BDF8CE34711E00224FF0010CE04611F806
:1018000001EF704504BF62464346A942F7D10AB1D1
:10181000ADF8CE34BDF8CE3413B93055274602E0CA
:101820000023ADF8CE347C1EE4B2002FD6D1099748
:101830000024ADF8CE4406F093FE96481AF074FEEC
:10184000FFF78EFF05460490914B6D2283F8FC2034
:10185000752283F8FD20732283F8FE20692283F825
:10186000FF20632283F800212F2283F801218A4B75
:10187000186803F04FFA40F60B01284613F024FBDA
:10188000039040F61201284613F01EFB40F60A01B1
:10189000284613F019FB40F60801284613F014FB04
:1018A000074640F60901284613F00EFB009040F66B
:1018B0001101284613F008FB0190A146012305936E
:1018C0000694A3469A46DFF8E481744C52E0002067
:1018D0000BF036F906F022FE0DF2CE434FF4806293
:1018E0006F49AAA808F050FC40BB28460DF08EFFB7
:1018F000079001200BF030F9BDF8CE3473B1694E7A
:10190000002516F8010F0BF03FF9236913F4807FCF
:10191000FBD00135BDF8CE34AB42F2DC00200BF039
:101920001BF99DF81C100A460B200BF061F9BDF85D
:10193000CE34B3F5806F38BF4FF0010A0BF088F951
:101940000BF0DEF94FF47A7303FB00F00028B8BF08
:101950000730C010069B93FBF0F504200BF0A8F9AC
:10196000642303FB00F191FBF5F102980EF0C2F83D
:1019700006F0F6FDD8F8103013F0080F1BD1D8F898
:10198000103013F0080FFAD0059B4BB1464B1B8B60
:101990009BB243F40073444A1383002305930AE087
:1019A000414B5B8B9BB243F400733F4A538305F07A
:1019B000C5F80123059338460FF0A0FF30B1384633
:1019C0000FF09CFF0028FAD14FF0010A01980FF0A8
:1019D00095FF30B101980FF091FF0028FAD18BF0FC
:1019E000010B00980FF08AFF38B100980FF086FFC6
:1019F0000028FAD1A9F1020902E0BAF1010F76D16B
:101A000006F08CFD09F10109089B4B4508BF4FF01A
:101A100000091E4B1193FF2312931D4A02F2011578
:101A200002F265122B46002103F8011F9342FBD1FD
:101A30001549A0A808F064FC154B13F809305BB1F8
:101A4000099E134F0BA9A0A808F09CFC0136F6B222
:101A500017F80930B342F5D10BA9A0A808F092FC01
:101A600078BB9DF8353063B306F07AFD119B1A7888
:101A7000F2B105F8012F013311931A78002AF8D139
:101A80001FE000BF9CE2020894E1020818D6002083
:101A90000000006820810308E0DF00200000024011
:101AA00068010068670100680004024000100240FD
:101AB0000DAB0DF1410213F8011F05F8011F934210
:101AC000F9D10BF0DDF806F029FD1F4D012205F1DB
:101AD000FC01AAA808F0AEFAAD9B069306F040FD03
:101AE00005F5817103980DF0B1FB4FF0000A282035
:101AF00003F0B4FA40F60B01049E304613F0E4F90B
:101B0000039040F61201304613F0DEF9054640F628
:101B10000A01304613F0D8F9029040F60801304629
:101B200013F0D2F9074640F60901304613F0CCF91C
:101B3000009040F61101304613F0C6F90190BBF158
:101B4000000F3FF417AFC2E60000006808B54FF47D
:101B5000FF2103481DF04EFD02481CF0ABF908BD03
:101B6000680500681C8403082DE9F0418846174683
:101B70001E4601211D4808F07BFD1D4D1B4C2946CA
:101B8000204608F0BDFD0028F9D00022D0211748DA
:101B900008F08AFD174D154C2946204608F0B0FD87
:101BA0000028F9D04146114808F0A4FD124D0F4C11
:101BB0002946204608F0A4FD0028F9D037440B4CF4
:101BC0000D4D0AE016F8011B204608F093FD29464A
:101BD000204608F095FD0028F9D0BE42F2D101213F
:101BE000024808F053FD0020BDE8F0810054004099
:101BF00001000300820007008400070000B583B0E5
:101C0000214B93F82430BBB118B102238DF8073073
:101C100002E000238DF807301B4B196858680DF15E
:101C200007030122497C0078FFF79EFF10BB9DF857
:101C30000720154B5A7424E0134B9B7AE3B130B163
:101C4000114B5B7CD3B901238DF8073002E00023F0
:101C50008DF807300C4B196858680DF10703012205
:101C6000497C0078FFF780FF50B99DF80720064BAC
:101C70005A7406E0012004E0012002E0002000E0A8
:101C8000012003B05DF804FB000000202DE9F041C5
:101C9000884614461F463B4E4FF4003529463046D1
:101CA00008F03CFD0028F9D10121364808F0E0FC9D
:101CB000354E344D3146284608F022FD0028F9D033
:101CC0000022D0212F4808F0EFFC304E2D4D314638
:101CD000284608F015FD0028F9D02A4D0121284694
:101CE00008F0B8FC4146284608F004FD284E31466D
:101CF000284608F005FD0028F9D00121214808F008
:101D0000B7FC214E1F4D3146284608F0F9FC00284B
:101D1000F9D00122D0211B4808F0C6FC1D4E194DF8
:101D20003146284608F0ECFC0028F9D01A4E154D33
:101D30001FE04FF00008012C0ED14146284608F064
:101D4000BDFC0121284608F0A1FC3146284608F0D8
:101D5000D7FC0028EFD005E03146284608F0D0FC3B
:101D60000028E8D0284608F0C7FC07F8010B013C22
:101D7000E4B2002CDDD10121024808F09FFC0020D4
:101D8000BDE8F0810054004001000300820007001C
:101D90008400070002000300400003001E4B9B7AF2
:101DA00093B310B582B004461B4B1968586801AB59
:101DB0000222097C0078FFF769FF024638BB164B08
:101DC00059689DF804009DF8053043EA00231BB2D2
:101DD00007EE903AB8EEE77AB1F9083007EE903A9C
:101DE000F8EEE77A77EE677ACB8806EE903AF8EE6F
:101DF000E66A87EEA67ADFED097A77EE277AFEEEBD
:101E0000C87AC4ED007A03E001221046704701222F
:101E1000104602B010BD00BF0000002000000C42C0
:101E2000734B9B7A002B00F0CD8000B583B002ABE2
:101E3000002203F8012D6E4A116850680122497C86
:101E40000078FFF791FE002840F0BE80684B1968CB
:101E500058680DF10703012249790078FFF784FEE5
:101E6000002840F0B380624B196858680DF10703F1
:101E7000012209790078FFF777FE002840F0A8805A
:101E80005B4B93F82430002B4ED002AB0C2203F8AE
:101E9000012D574A11685068012209790078FFF72F
:101EA00063FE002840F0968032200AF061FEC023D5
:101EB0008DF807304E4B9B7A13F0010F1CBFE023C7
:101EC0008DF807304A4B196858680DF10703012255
:101ED00009790078FFF748FE00287DD1444B5B7CF0
:101EE0001BB102238DF8073002E000238DF8073084
:101EF0003F4B196858680DF107030122497C0078AF
:101F0000FFF732FE002869D102AB002203F8012D51
:101F1000374A11685068012249790078FFF724FE9A
:101F2000003018BF012060E002AB042203F8012D4D
:101F30002F4A11685068012209790078FFF714FED2
:101F400000284DD12A4B9B7C23B9294B9B7A13F057
:101F5000010F03D140238DF8073002E060238DF894
:101F60000730234B196858680DF1070301220979DE
:101F70000078FFF7F9FD002834D132200AF0F8FD8F
:101F80001B4B5B7C1BB101238DF8073002E0002363
:101F90008DF80730164B196858680DF107030122B8
:101FA000497C0078FFF7E0FDF0B9114B19685868DB
:101FB0001033012249790078FFF7D6FD003018BFB1
:101FC000012012E00120704701200EE001200CE00A
:101FD00001200AE0012008E0012006E0012004E0E1
:101FE000012002E0012000E0012003B05DF804FBC5
:101FF000000000200D4B1B7A032B12D8DFE803F002
:102000000205090DFA2303800DE04FF4FA730380F3
:1020100009E04FF47A73038005E04FF4FA6303801C
:1020200001E0002303800020704700BF0000002073
:1020300000B583B0214B9B7AABB3B0F5FA7F0ED0DD
:1020400002D8FA2807D030E0B0F57A7F0BD0B0F58F
:10205000FA6F0CD029E000238DF807300AE008233E
:102060008DF8073006E010238DF8073002E01823C2
:102070008DF807309DF80720104B1B7AB3EBD20F79
:1020800015D00E4B196858680DF1070301228979A4
:102090000078FFF769FD034658B99DF80720D2087C
:1020A00006490A7206E0012304E0012302E000234E
:1020B00000E00123184603B05DF804FB0000002097
:1020C0000E4B5B7A032B16D8DFE803F00205080BF2
:1020D0000223037007E00423037004E00823037065
:1020E00001E010230370054BDB7C2BB103785B0010
:1020F0000370002300E00123184670470000002011
:1021000000B583B0214B9B7A002B34D002380E28C7
:1021100033D8DFE800F008320C323232103232327B
:1021200032323232140000238DF807300AE00823DF
:102130008DF8073006E010238DF8073002E01823F1
:102140008DF807309DF80720104B5B7AB3EBD20F68
:1021500015D00E4B196858680DF107030122C97993
:102160000078FFF701FD034658B99DF80720D20813
:1021700006494A7206E0012304E0012302E000233D
:1021800000E00123184603B05DF804FB00000020C6
:102190000F4BDB7A013B052B16D8DFE803F0030673
:1021A000090C0F12BC23038010E0622303800DE0B2
:1021B0002A2303800AE01423038007E00A23038014
:1021C00004E00523038001E0002303800020704722
:1021D00000000020224B9B7A002B36D000B583B044
:1021E000BB2803D901238DF8073017E0612803D9F4
:1021F00002238DF8073011E0292803D903238DF835
:1022000007300BE0132803D904238DF8073005E0CD
:1022100009288CBF052306238DF80730104BDA7A86
:102220009DF807309A4213D00D4B196858680DF18C
:102230000703012289780078FFF796FC034648B926
:102240009DF80710064AD17205E001231846704731
:10225000002300E00123184603B05DF804FB00BF33
:1022600000000020054B93F824301BB9034AD289A3
:10227000028000E001231846704700BF00000020E4
:1022800038B5164B93F82430C3B9144B9B7ABBB1C5
:1022900000F0FE00114A157C03401374C41A18BFE5
:1022A0004FF0FF3470B9137DA3B9FFF7A7FC03E02B
:1022B0000A4B1D74012038BDE0B238BD002038BD86
:1022C000012038BD0120FFF799FCFFF7A9FD002888
:1022D000F2D0EDE70120FFF791FCEDE700000020D0
:1022E000524B9B7C834200F0928010B582B0044632
:1022F000002841D04D4B196858680DF107030122A1
:1023000009790078FFF7C2FC002840F082809DF830
:10231000072022F0200202AB03F8012D434A116886
:102320005068012209790078FFF71EFC002872D15D
:1023300003200AF01DFC02238DF807303B4B93F875
:10234000223013B182238DF80730384B93F82330B5
:102350002BB19DF8073043F030038DF80730334B35
:10236000196858680DF107030122C97D0078FFF74D
:10237000FBFB002847D050E02C4B196858680DF142
:102380000703012209790078FFF780FC002846D175
:10239000264B9B7A13F0010F9DF8073014BF43F0D2
:1023A000200323F020038DF80730204B196858686C
:1023B0000DF10703012209790078FFF7D5FB80BBF7
:1023C00003200AF0D5FB194B93F822301BB1802370
:1023D0008DF8073002E000238DF80730134B93F897
:1023E00023302BB19DF8073043F030038DF80730D0
:1023F0000E4B196858680DF107030122C97D00785A
:10240000FFF7B2FB78B9094B9C7400200CE0002068
:102410007047012008E0012006E0012004E00120CF
:1024200002E0012000E0012002B010BD0000002009
:102430001C4B93F8233083422DD010B582B018B1D5
:1024400030238DF8073002E000238DF80730154B5C
:102450009B7C2BB19DF8073043F002038DF80730C9
:10246000104B93F822302BB19DF8073063F07F03B7
:102470008DF8073004460B4B196858680DF10703B7
:102480000122C97D0078FFF76FFB034630B9054A8A
:1024900082F8234003E000231846704701231846C2
:1024A00002B010BD0000002010B582B028285CD812
:1024B0000446C0B90020FFF7BBFF00238DF80430AD
:1024C00007238DF805302D4B1968586801AB02229F
:1024D000497D0078FFF748FB0446002847D10022D9
:1024E000264B1A7546E00120FFF7A2FF20238DF846
:1024F0000430012C06D100238DF805300520FFF7AC
:1025000069FE17E0052C06D801238DF8053005205B
:10251000FFF760FE0EE0142C06D802238DF805307C
:102520000A20FFF757FE05E003238DF8053014203D
:10253000FFF750FE9DF805309B0143F007038DF82F
:1025400005300E4B1968586801AB0222497D0078AE
:10255000FFF70AFB044660B9084B08229A72187309
:1025600001221A75FFF78CFE04E0012402E0012429
:1025700000E00124204602B010BD00BF0000002092
:1025800030B583B0224B9B7A002B39D0204B93F887
:102590002440002C36D105461B7D53B1431E9BB20F
:1025A000272B03D8C0B2FFF77FFF2EE00020FFF7F4
:1025B0007BFF032D06D92846B5F57A7F28BF4FF457
:1025C0007A7000E004204FF47A7595FBF0F0013842
:1025D00002AB03F8010D0E4A1168506801224978D8
:1025E0000078FFF7C1FA044670B99DF80700013082
:1025F00095FBF0F0064BD8814008FFF7EBFD04E0B7
:10260000012402E0012400E00124204603B030BD93
:102610000000002030B583B0044610F0700F03D0E6
:1026200001238DF8073013E018B100238DF807302F
:102630000EE002AB402203F8012D374A11685068C2
:102640000122497D0078FFF78FFA002859D00AE06F
:10265000314B196858680DF107030122497D007854
:10266000FFF782FA20B100222B4B9A7201254FE02E
:102670009DF8073023F04003274A137300238DF899
:10268000073014F0400F02D104238DF8073014F006
:10269000200F05D19DF8073043F002038DF8073075
:1026A00014F0100F05D19DF8073043F001038DF8A9
:1026B000073014F0080F05D19DF8073043F03803B8
:1026C0008DF80730144B196858680DF10703012283
:1026D000897D0078FFF748FA054620B100220E4BAD
:1026E0009A72012514E014F0F70F02D00020FFF7D2
:1026F0009FFE094B9C7200221A7532200AF038FAAC
:1027000006E09DF8073023F04003034A1373BBE74C
:10271000284603B030BD00BF0000002010B582B0D5
:1027200002AB802203F8082D564A11685068012236
:10273000497D0078FFF718FA002840F0898064206E
:102740000AF016FA02AB002203F8082D4D4A116870
:1027500050680122497D0078FFF706FA002879D1F8
:10276000484B196858686B460622497E0078FFF787
:102770008DFA002870D19DF805309B0003F004020B
:102780009DF803305B0003F0020313439DF8012022
:1027900002F0010213430BD0012B03D10122394B6C
:1027A000DA741BE0022B59D10022364BDA7415E0A3
:1027B000344B196858686B460122C9780078FFF7D6
:1027C00065FA00284CD19DF8003013F00F0349D072
:1027D000042B0CBF012200222A4BDA74294BFF2262
:1027E0009A721A725A72DA724FF6FF71D9811A749C
:1027F0009A7401221A73002283F8222083F823207E
:102800005A751A75C3F81620C3F81A20C3F81E208B
:1028100083F8242083F82520DA844FF4FA60FFF748
:1028200007FC08BB0220FFF76BFCF8B92A20FFF772
:10283000D1FCE8B93220FFF7A3FED8B9FFF720FD9D
:10284000D0B9FFF74DFD0446C0B9FFF7E3FE16E02F
:10285000012414E0012412E0012410E001240EE020
:1028600001240CE001240AE0012408E0012406E030
:10287000012404E0012402E0012400E001242046B8
:1028800002B010BD000000204AB31346184A927AE5
:102890003AB370B582B0020A8DF80420C0B28DF848
:1028A0000500134A556808446A8990421BDC1E469D
:1028B0000C460F4B196801AB0222C97E2878FFF73E
:1028C00053F990B90A4B196858683346E2B2097E49
:1028D0000078FFF749F9003018BF012006E0012019
:1028E000704701207047012000E0012002B070BD58
:1028F000000000204AB31346184A927A3AB370B5E2
:1029000082B0020A8DF80420C0B28DF80500134A87
:10291000556808446A8990421BDC1E460C460F4BE2
:10292000196801AB0222C97E2878FFF71DF990B91A
:102930000A4B196858683346E2B2097E0078FFF7FF
:10294000A5F9003018BF012006E0012070470120E2
:102950007047012000E0012002B070BD000000209F
:102960002DE9F04F83B0294C94F82540002C3ED13E
:1029700000293ED0019393468A468046F8B1DFF89D
:102980009490C4EB0806102EA8BF1026B5B20AEB2F
:1029900004073A4629462046FFF776FF58BB4A46C9
:1029A00029462046FFF7A6FF38BB2A464946384647
:1029B00027F07CF818BB2C44A4B2A045E1D8144BF6
:1029C0004FEA1B221A7083F801B0104A1168506850
:1029D0000222497F0078FFF7C7F8034688B90B4AFF
:1029E000012182F82510BDF80410D1840AE00123EA
:1029F00008E0012306E0012304E0012302E00223B2
:102A000000E00123184603B0BDE8F08F000000206D
:102A100040E8002044E8002030B583B0204B93F814
:102A20002430834236D000B31D4B93F825309BB33E
:102A30000020FFF7E3F80020FFF752FC184DE88C68
:102A4000FFF79EFD002402AB03F8014D68680122E8
:102A500023210078FFF788F8012085F82400FFF78C
:102A6000CDF8FFF7DDF9204617E00020FFF7C6F8A4
:102A70000B4D2A7C02AB03F8012D6868012223214B
:102A80000078FFF771F8002485F82440FFF7C8F9B3
:102A9000204602E0002000E0012003B030BD00BF6E
:102AA00000000020F0B583B02AB9754B9B7D002B48
:102AB00000F0AD80B6E00C461646B0F5FF5F04D8D6
:102AC0001F2804D9C0F3471502E0FF2500E00125C7
:102AD000002C08BF0124282E00F2CC80684B5B7DBF
:102AE00023BB674B93F824303BB10020FFF794FFE2
:102AF0000122634B83F8202003E00022604B83F81F
:102B000020205F4F07F11600FFF774FA07F1180055
:102B1000FFF7D6FA07F11A00FFF73AFB07F11C009E
:102B2000FFF7A0FBBB7ABB773B7CFB770020FFF76E
:102B300065F80020FFF7B8FC02AB002203F8042D73
:102B40004F4A11685068012289780078FFF70CF825
:102B5000002840F0918002AB402203F8042D484A3F
:102B6000116850680122497C0078FEF7FDFF0028BB
:102B700058D18DF804508DF80540414B19685868BC
:102B800001AB0222897A0078FEF7EEFF002849D1D6
:102B9000052009F0EDFF3A494A7AD20042F00702D7
:102BA00002AB03F8042D0C6848680122E179007833
:102BB000FEF7DAFF002835D120238DF80430012EEE
:102BC00003D100238DF805300BE0052E03D8012337
:102BD0008DF8053005E0142E94BF022303238DF8F1
:102BE00005309DF805309B0143F007038DF8053053
:102BF000234B1968586801AB0222497D0078FEF723
:102C0000B3FF034670B901211D4A517535E01C49D7
:102C100001F11603213113F8012F1AB98B42FAD1B1
:102C200001232AE0164CFF2323726372E3724FF6EE
:102C3000FF72E281A372237401232373A07FFFF745
:102C4000E9FCE08AFFF7F4F9207EFFF759FA608B80
:102C5000FFF7C0FAA08BFFF793FCE07FFFF710FBB4
:102C600094F8203013B10120FFF7D6FE0023044A68
:102C7000537502E0012300E00123184603B0F0BDC4
:102C80000000002008B5024827F092F808BD00BFF8
:102C900034E2020808B510B1012804D007E0064864
:102CA00027F086F808BD054827F082F808BD0448DB
:102CB00027F07EF808BD00BF48E202085CE2020887
:102CC00070E2020808B5024827F072F808BD00BF9C
:102CD00088E2020808B5024827F06AF808BD00BF7C
:102CE000A0E2020808B5024827F062F808BD00BF5C
:102CF000B4E2020808B5024827F05AF808BD00BF40
:102D0000C8E2020808B5024827F052F808BD00BF23
:102D1000DCE2020870B5044603681D2B5DD100217A
:102D200040680EF061F840F62101606812F0CCF8BE
:102D3000054640F62201606812F0C6F806461E21DC
:102D400028460EF003F81E2130460DF0FFFF01214A
:102D500028460DF0DBFF012130460DF0D7FF0121A1
:102D600028460EF011F8012130460EF00DF84FF410
:102D7000C873012211460A200DF09AF9184C206000
:102D80004FF47F410DF0CAF9216828460DF096FFF7
:102D9000216830460DF092FF6423002202210A20B0
:102DA0000DF086F960604FF47F010DF0B7F96168AE
:102DB00028460DF083FF616830460DF07FFF6423E5
:102DC000084A4FF4FA714FF47F000DF093FA014670
:102DD000A06028460DF04AFF70BD14F02BFB70BDBB
:102DE00018D700201CE3002000B583B012F0A0F833
:102DF0000023019300930346034A032103480EF086
:102E000097FC03B05DF804FB152D0008F4E20208FE
:102E100070B584B0FFF7E8FF044640F6210112F0D8
:102E200053F8064640F62201204612F04DF80546BA
:102E300000231A464FF4FA714FF47F000DF05AFA4E
:102E4000134CA06000231A464FF4FA714FF47F40F0
:102E50000DF050FAE060A16830460DF007FFE16820
:102E600028460DF003FF0B4B186801F053FF642553
:102E7000284602F0F3F805F051FB6846FEF78EFF96
:102E800005F06EFBBDF90010A0680DF081FAEFE7C8
:102E900018D70020E0DF0020014B1860704700BF0A
:102EA00020000E4208B500231A46084908481AF0C7
:102EB00007FF4FF4A072F021002016F0D3FD4FF46D
:102EC000A072F021002016F0B3FD08BDD4E1030884
:102ED00064E0020801290CBF00204FF0FF3070476A
:102EE000F8B5044603681D2B40F09280002140682D
:102EF0000DF07AFF40F60101606811F0E5FF05462C
:102F000045490CF0D5F9454928460CF09FF940F6A3
:102F10000201606811F0D8FF054641490CF096F9AE
:102F2000404928460CF0C4F940F60301606811F0EE
:102F3000CBFF05463C4E31460CF0BAF93B492846DA
:102F40000CF084F940F60601606811F0BDFF0746F9
:102F500037490CF07BF9374D294638460CF0A8F973
:102F600040F60701606811F0AFFF074632490CF0E8
:102F70006DF9314638460CF09BF940F6080160685F
:102F800011F0A2FF064629460CF092F92B49304673
:102F90000CF05CF940F60501606811F095FF0446FD
:102FA0000A210DF0D3FE012120460DF0AFFE0121D4
:102FB00020460DF0E9FE64230122114605200DF0A4
:102FC00077F81F4D28604FF47F410DF0A7F829686E
:102FD00020460DF073FE32230022022105200DF061
:102FE00067F868604FF47F010DF098F86968204633
:102FF0000DF064FE6423134A4FF4FA714FF47F001E
:103000000DF078F90146A86020460DF02FFEF8BDBE
:1030100014F010FAF8BD00BF7812030838E4020873
:103020003CE40208085B0308F0C8030840E4020817
:1030300044E40208C4BB03084CE4020850E402085C
:1030400028D700201CE3002000B583B011F070FFEA
:103050000023019300930346034A082103480EF01E
:1030600067FB03B05DF804FBE12E000858E302089B
:103070002DE9F04F83B0FFF7E7FF04460190364B90
:10308000186801F047FE354B186801F043FE002038
:1030900019F062F940F60501204611F015FF0446CB
:1030A00000231A464FF4FA714FF47F000DF022F915
:1030B00001462B4B986020460DF0D8FD294B1B692B
:1030C00013F0080F06D1284A538B9BB243F4807348
:1030D0005383F9E74FF00009DFF88CA06425DFF88F
:1030E000808008F12006DFF87CB0BAF818309BB277
:1030F00043F48073AAF8183040F60101019F384666
:1031000011F0E2FE04460A221849484607F08EF9FB
:10311000014620460CF09AF809F10109284601F011
:103120009DFF38460FF070FC08F10C04002729467B
:10313000384601F0A7F824F8020BB442F7D1B8F9E9
:103140000C10D8F808000DF023F9DBF8103013F05C
:10315000080FCAD1B7E700BFE0DF00203CE800203D
:1031600028D70020001002400004024048DF002061
:10317000F8B506460F4601211A4807F079FA1A4DAC
:10318000184C2946204607F0BBFA0028F9D0002247
:10319000D021144807F088FA144D124C29462046D5
:1031A00007F0AEFA0028F9D039460E4807F0A2FA27
:1031B0000F4D0C4C2946204607F0A2FA0028F9D002
:1031C0003178084807F096FA094D064C2946204602
:1031D00007F096FA0028F9D00121024807F056FAC4
:1031E000F8BD00BF0054004001000300820007004A
:1031F000840007002DE9F0410746884614463B4EFF
:103200004FF400352946304607F088FA0028F9D1F6
:103210000121364807F02CFA354E344D3146284608
:1032200007F06EFA0028F9D00022D0212F4807F0CD
:103230003BFA304E2D4D3146284607F061FA002802
:10324000F9D02A4D0121284607F004FA41462846C4
:1032500007F050FA284E3146284607F051FA002868
:10326000F9D00121214807F003FA214E1F4D3146C4
:10327000284607F045FA0028F9D00122D0211B4842
:1032800007F012FA1D4E194D3146284607F038FA5C
:103290000028F9D01A4E154D1FE04FF00008012C00
:1032A0000ED14146284607F009FA0121284607F0C9
:1032B000EDF93146284607F023FA0028EFD005E063
:1032C0003146284607F01CFA0028E8D0284607F0C7
:1032D00013FA07F8010B013CA4B2002CDDD1012147
:1032E000024807F0EBF9BDE8F08100BF0054004050
:1032F00001000300820007008400070002000300B1
:103300004000030070B582B004460D461646012207
:1033100001460DF10700FFF76DFF36B10121A9400D
:103320009DF807301943C9B205E00121A9409DF875
:10333000073023EA010102A800F8011D2146FFF72A
:1033400017FF02B070BD00BF054B1A6912F0080FDD
:10335000FBD1044A538B9BB243F480735383F9E748
:10336000001002400004024008B5114B114A9A4275
:103370000CD2581E801A20F0030004300E4B184463
:1033800053F8041B42F8041B8342F9D10B480C4943
:103390004FF000028842B8BF40F8042BFADBDFF898
:1033A0002400016841F47001016000F085FE08BD51
:1033B0004C0D002000000020A0FF0308000E00209C
:1033C000482F012088ED00E020230B800048704743
:1033D0004800002010B50446812107F0FFFA0121C2
:1033E000204607F0FBFA204609F084FF002010BDBC
:1033F00010B50446FFF7EEFF02234022812120464C
:1034000007F0B4FA022340220121204607F0AEFA69
:10341000204609F03BFF002010BD00BF70B50646F6
:103420000C460B7813F060053FD0202D61D14A780F
:10343000FE2A02D0FF2A23D033E04A88D2B9CA88B4
:10344000012A17D113F0800F14D02B4B1B689B69F6
:103450009847C0B2294B187030B101221946304646
:1034600009F0AAFE002545E02146304604F044FA62
:1034700002253FE02146304604F03EFA022539E0BD
:103480004A8842B9CA8832B913F0800F03D109F0D3
:103490001FFF00252EE02146304604F02DFA0225BC
:1034A00028E004F029FA022524E04B780A2B04D006
:1034B0000B2B07D0012B1DD108E00122104909F088
:1034C0007BFE17E04A880D4B5A7013E0097907F02C
:1034D0002FFB2179304607F081FAA1880223402290
:1034E000C9B2304607F042FA2179304609F0BCFFF4
:1034F00000E00025284670BDD400002070D70020D1
:1035000071D7002008B509F017FF002008BD00BFE3
:1035100008B509F031FF002008BD00BF10B5044612
:10352000D0F8E8351B699847032384F8123100204E
:1035300010BD00BF08B590F8123180F81331042394
:1035400080F81231D0F8E835DB689847002008BDD4
:1035500008B5D0F8E435DB6903B19847002008BD11
:1035600008B5D0F8E4351B6A9847002008BD00BFB5
:1035700008B5D0F8E4355B6A9847002008BD00BF65
:1035800010B50446D0F8E8355B699847012384F804
:103590001531002010BD00BF10B50446D0F8E83545
:1035A0009B699847D4F8E4355B680021204698472A
:1035B000002084F8150110BD10B5044600234022F8
:1035C000194607F0D3F9002340228021204607F056
:1035D000CDF9012384F81231D4F8E8355B68A0787E
:1035E0009847002010BD00BF10B582B00446694660
:1035F00004F060F99DF8001001F01F03012B08D0C2
:1036000013B1022B0AD00EE06946204604F082F97D
:103610000EE06946204604F009FB09E069462046B1
:1036200004F020FB04E001F08001204607F040FA9E
:10363000002002B010BD00BF10B50446002948D1DB
:1036400090F81131022B38D1D0F83821D0F824313C
:103650009A4211D9D21AC0F83821C178012904D16F
:10366000D0F828110B44C0F8283192B2D4F82811B0
:10367000204609F0B1FD20E0D0F83C11B1FBF3F297
:1036800003FB121262B98B420AD8D0F8403199423A
:1036900006D2114609F0A0FD0023C4F840310CE029
:1036A000D4F8E435DB682BB194F81221032A01D158
:1036B00020469847204609F0AFFD94F81631012BBB
:1036C00012D12369094A12685A60002384F816311E
:1036D0000AE00A46D0F8E4355B692BB190F8121184
:1036E000032901D111469847002010BD3410012054
:1036F00010B5044659BB90F81131032B32D1D0F8E4
:103700009033D0F87C23934214D99B1AC0F890339D
:10371000C178012904D1D0F880131144C0F8801376
:103720009A4228BF1A4692B2D4F88013204609F074
:103730005BFD17E0D0F8E4351B6923B190F8122146
:10374000032A00D19847204609F056FD0AE00A46B0
:10375000D0F8E4359B692BB190F81211032901D1FF
:1037600011469847002010BDF8B504460D46164690
:103770001F4604F005F8C4F8E475069BC4F8E83564
:10378000C4F8EC652946204607F0A6F8D4F8E835D9
:103790001B689847204604F04DF8F8BD10B5044664
:1037A000D0F8E4351B689847D4F8E8359B6898470B
:1037B000002010BD08B5D0F8E4355B6898470020BC
:1037C00008BD00BF08B504F0A9FE06F063FE10B105
:1037D0000022024B1A6004F0C3FE08BD74D700201B
:1037E00070B501F035FB002204210A2004F0BEFB75
:1037F0000E4B18600E4C4FF496760E4D238B9BB2F9
:1038000043F480732383304618F0B4FA236913F429
:10381000805F03D12B6913F0080FEFD1044A538B5B
:103820009BB243F480735383FEE700BF14E3002090
:10383000000402400010024070B590B005460E46EC
:10384000144C0121204603F019FD204603F040FCF2
:10385000002301930296104A039280220492059558
:103860004FF4007206920793089309930A934FF45A
:1038700040320B9204220C9202220D920E930F936F
:1038800001A9204603F0CEFC0121204603F0F6FCFE
:1038900010B070BD10640240000001802DE9F041BD
:1038A00082B00F4690461C46BDF8206001220146BA
:1038B000194806F0BFFB194B187106FB04F505EB20
:1038C00045050023019306EB0803E219013B013A89
:1038D0004146384603F072F9002D19DD104E114CA7
:1038E00001AB4FF4006231460B4806F04DFC0B4B28
:1038F000187131464FF40060FFF79EFF236813F004
:10390000200FFBD000232360A5F500659D42E7DC76
:1039100002B0BDE8F08100BF5810012074D700202C
:103920008012012000640240F0B589B0074663238D
:103930000693A723ADF814300026ADF81C60ADF84F
:103940001660104C05A9204609F0A6FD6023ADF8CD
:1039500000300125ADF802500297ADF80C606946C1
:10396000204609F0F9FD0821204609F029FE2946E4
:10397000204609F0D5FD2946204609F0DFFD09B0B3
:10398000F0BD00BF000400404FF080434FF4D2620E
:103990001A854FF47A72DA629A8992B242F0010281
:1039A0009A811A8892B242F001021A804FF0805236
:1039B000014B1A60704700BF00E100E0684620F04C
:1039C00007018D4601B40B4B1A6801321A601B685F
:1039D000B3F5FA7F05D1084A538B9BB243F4807349
:1039E00053834FF6FE724FF080431A825DF8040B4A
:1039F0008546704774D700200004024030B589B076
:103A00000120FFF749FA012000F06EFC4124204616
:103A100000F04AFD0028FAD04FF4807000F0C4FC9A
:103A2000012000F0D9FC09F023FA47F6FF72304B71
:103A30001A6101214FF4807009F07EFB00F048FD0F
:103A400000258DF81E5009238DF81D3004248DF8B3
:103A50001C408DF81F5007A9012009F02DFA0F23F3
:103A60008DF81A300B238DF819308DF818400D237E
:103A70008DF81B3006A9012009F094FA8DF8145036
:103A800008238DF8153001248DF8164008A84FF44E
:103A9000003340F8103D06F085FE29464FF4807053
:103AA00009F01CFB8DF800408DF8014005238DF8CE
:103AB00002308DF803500F4B01936A464FF480712A
:103AC000204609F0B7FA21464FF4807009F006FB52
:103AD00021464FF4805009F02FFB4FF4805009F03D
:103AE0005DFB4FF4807009F04BFB09B030BD00BFA7
:103AF0000028004000808080204B1A6B42F00102B9
:103B00001A631A6B42F002021A631A6B42F0040243
:103B10001A631A6B42F008021A631A6B42F0100221
:103B20001A631A6B42F020021A631A6B42F04002C9
:103B30001A631A6C42F080521A641A6B42F48002C3
:103B40001A639A6B42F001029A631A6C42F0020205
:103B50001A641A6C42F001021A645A6C42F48042F0
:103B60005A641A6B42F480521A635A6B42F0400254
:103B70005A635A6C42F400625A647047003802403B
:103B800000B583B000238DF805308DF80630012391
:103B90008DF8073002A81C2300F8043D06F05AFEF9
:103BA00003B05DF804FB00BF684620F007018D46B6
:103BB00001B54FF4805009F0F1FA4FF4003006F0EF
:103BC00039FEBDE801408546704700BF2DE9F0434E
:103BD00083B0BB4D4FF00009C5F800902B6843F44B
:103BE00080332B60AB6843F44033AB606B6943F4C4
:103BF00080736B612B8B9BB243F480732B83B14C2E
:103C0000236843F480532360A36843F44053A360C4
:103C1000636943F040036361AB4F3B6843F08063EB
:103C20003B60BB6843F04063BB607B6943F4005377
:103C30007B61236843F002032360A36843F003031E
:103C4000A3600C224946204602F0FAFE236843F0A6
:103C500008032360A36843F00C03A3600C22012136
:103C6000204602F0EDFE236843F400732360A3684E
:103C700043F44073A3600C220421204602F0E0FECE
:103C8000236843F400632360A36843F44063A360A4
:103C90000C220521204602F0D3FE236843F40003E2
:103CA0002360A36843F44003A3600C220B21204649
:103CB00002F0C6FE236843F000532360A36843F07C
:103CC0004053A3600C220E21204602F0B9FE236867
:103CD00043F000432360A36843F04043A3600C22F9
:103CE0000F21204602F0ACFE784E336843F40043C7
:103CF0003360B36843F44043B3600C22072130467D
:103D000002F09EFE336843F400333360B36843F43B
:103D10004033B3600C220821304602F091FE336834
:103D200043F400233360B36843F44023B3600C22B0
:103D30000921304602F084FE336843F400133360F7
:103D4000B36843F44013B3600C220A21304602F0FA
:103D500077FEDFF88081D8F8003043F00403C8F81C
:103D60000030D8F8043043F00203C8F80430D8F823
:103D7000083043F00C03C8F80830D8F8143043F08A
:103D80000203C8F81430B8F81A309BB243F00203AB
:103D9000A8F81A30D8F8003043F01003C8F8003003
:103DA000D8F8083043F03003C8F80830D8F8143099
:103DB00043F00403C8F814302B6843F008032B6069
:103DC000AB6843F00C03AB6002220121284602F0ED
:103DD00037FE2B6843F480232B60AB6843F4002349
:103DE000AB606B6943F400736B612B8B9BB243F444
:103DF00000732B83364B1A6842F480021A609A686B
:103E000042F440029A605A6942F400625A611A8B85
:103E100092B242F400621A831A6842F480521A6025
:103E20009A6842F440529A605A6942F040025A61DC
:103E30001A8B92B242F040021A832A6842F0400282
:103E40002A60AA6842F08002AA606A6942F0080209
:103E50006A612A8B92B242F008022A831A6842F4FD
:103E600080221A609A6842F400229A605A6942F4E9
:103E700000725A615A8B92B242F400725A833368CC
:103E800043F010033360B36843F02003B3607369F9
:103E900043F0040373614A460221304602F0CAFD32
:103EA0003B6843F040033B60BB6843F08003BB606A
:103EB0007B6943F008037B617B8B9BB20CE000BF06
:103EC00000040240000C02400008024000100240C2
:103ED000001402400000024043F008037B83AB68FB
:103EE00043F04053AB60EB6843F08053EB602B68CA
:103EF00043F400532B60AB6843F44053AB600222A1
:103F00000621284602F09CFDB36843F0C003B3606D
:103F1000F36843F04003F360AB6843F04073AB6079
:103F2000BB6843F48063BB60FB6843F48063FB6061
:103F30004FF4807300938DF804908DF807906946D4
:103F4000404602F029FD638B9BB243F0400363833C
:103F500003B0BDE8F08300BF30B587B00121022077
:103F600000F040FA02238DF814308DF8153001244A
:103F70008DF816408DF8174021464FF4001000F0E0
:103F80005BFA06A94FF4107341F8083D454D2846E9
:103F900002F002FD04220621284602F051FD04220F
:103FA0000921284602F04CFDA5F5D835284606F033
:103FB000AFFA2146284606F08FFBFF23013BFDD1D7
:103FC000394C0021204606F087FB384B0093002334
:103FD000ADF804304BF6FF73ADF80630D023ADF8E2
:103FE00008304FF48063ADF80A304FF48043ADF8E9
:103FF0000C306946204606F0BDFA0121204606F045
:1040000029FB02238DF814308DF8153001248DF82A
:1040100016408DF8174021464FF4800000F00CFA4E
:1040200006A94FF4406341F8083D1E4D284602F0B2
:10403000B3FC04220A21284602F002FD04220B21CF
:10404000284602F0FDFCA5F5D635284606F060FAB4
:104050002146284606F040FBFF23013BFDD1144CCE
:104060000021204606F038FB124B00930023ADF8E8
:1040700004304BF6FF73ADF80630D023ADF80830AE
:104080004FF48063ADF80A304FF48043ADF80C3044
:104090006946204606F06EFA0121204606F0DAFA5B
:1040A00007B030BD0004024000540040400D030042
:1040B00000580040801A060030B585B002F066FF57
:1040C000FFF71AFDFFF75CFDFFF780FD534A138BE6
:1040D0009BB243F04003138308F0E2FB02F0DCFCE8
:1040E00002F02CFD012006F035FB04200EF052FBFF
:1040F00019F06CFFFFF730FF03F018FAFFF77EFCB2
:1041000000224749474805F063FF2820FFF70CFCD1
:10411000FFF73AFC0020FEF701FB7820FEF77AFA61
:1041200002F0F6F828B13D4A538B9BB243F04003AE
:1041300053837820FEF7A4F86420FEF721FA0120CB
:1041400002F0F6FB40F2711002F0EAFA00220721B9
:104150003720FFF7D7F80120FEF75EFC28B12F4A81
:10416000538B9BB243F0400353832822012140F636
:10417000B830FEF797FC2C4B1B6913F0080F08D1E1
:104180002A4B00932A4B2B4A01212B48FFF7ECFACC
:10419000FEE7012010F0F0F90DF07CFD00240394FF
:1041A0000294264B01930723009323464FF4007299
:1041B0002349244800F0C4FC03940294224B019349
:1041C0000625009523464FF400722049204800F050
:1041D000B7FC039402941F4B0193009523464FF4C0
:1041E00000721D491D4800F0ABFC1D4B00930123DC
:1041F0001A460A211B4800F097FA05461A4B186028
:1042000000F026FE0094234602460121284600F0D5
:10421000B1FA00F0DBFD204605B030BD000C0240D5
:104220009CE20208A0EB0020001002402C000020BD
:104230006800002024010020F002012054DF00204B
:104240007CE40208E1370008E0DF002088E402088F
:10425000555F00083CE8002090E40208A1620008D5
:10426000C537000898E4020818E300200122014B3A
:104270005A71704774D700200122014B9A71704720
:1042800074D7002070B506460D460124204606F07E
:1042900077FA0028FAD006F06DFA0446012006F0FD
:1042A00079FAB4FBF5F005FB1040304470BD00BF57
:1042B000054B1A6912F4805FFBD0034A538B9BB203
:1042C00043F480735383FEE700040240054B1A69F0
:1042D00012F4805FFBD0034A538B9BB243F480738C
:1042E0005383FEE700040240084B00221A701A7044
:1042F000012802D0042804D070470122034B1A7011
:1043000070470522014B1A70704700BF7038024099
:1043100010B4224B9B6803F00C03042B05D0082B30
:1043200006D0EBB91E4B03601CE01D4B036019E087
:104330001A4B5A685B6803F03F03184A5268C2F38D
:1043400088121749B1FBF3F303FB02F2134B5B68CE
:10435000C3F3014301335B00B2FBF3F3036001E0FD
:104360000F4B03600D4CA368C3F303130D49CB5CE3
:10437000DAB20368D3404360A268C2F382228A5C47
:10438000D2B223FA02F28260A268C2F342328A5C9D
:10439000D2B2D340C3605DF8044B7047003802408E
:1043A0000024F400C400002000F44073B3F5407F03
:1043B00009D108498B6823F4F81320F0704222F4E5
:1043C000407213438B60034A136FC0F30B00184312
:1043D0001067704700380240014B1860704700BFFB
:1043E0003C0E474221B1054B1A6B104318637047CE
:1043F000024A136B23EA0000106370470038024042
:1044000021B1054B5A6B104358637047024A536BF6
:1044100023EA0000506370470038024021B1054B89
:104420009A6B104398637047024A936B23EA00002B
:10443000906370470038024021B1054B1A6C10435D
:1044400018647047024A136C23EA00001064704736
:104450000038024021B1054B5A6C10435864704734
:10446000024A536C23EA000050647047003802404F
:1044700021B1054B1A6A104318627047024A136A49
:1044800023EA0000106270470038024021B1054B5A
:104490005A6A104358627047024A536A23EA00007E
:1044A00050627047003802404309012B02D1074B8C
:1044B0001B6804E0022B054B0CBF1B6F5B6F00F009
:1044C0001F0023FA00F000F001007047003802409E
:1044D000024A536F43F080735367704700380240BD
:1044E000054B1A6912F4805FFBD0034A538B9BB2D1
:1044F00043F480735383FEE70004024080B582B02A
:10450000134B1B6913F4805F06D0114A538B9BB287
:1045100043F480735383FEE7DFF83C80FF240C4FA5
:1045200002260196002500952346052204214046D7
:1045300002F036FC01960095234606220421054828
:1045400002F02EFC3B6913F4805FE9D0DDE700BF89
:1045500000040240ACE40208A0E4020880B582B086
:10456000134B1B6913F4805F06D0114A538B9BB227
:1045700043F480735383FEE7DFF83C804FF47F04FD
:104580000B4F02260196002500952346092204219F
:10459000404602F005FC0196009523460A220421BC
:1045A000044802F0FDFB3B6913F4805FE9D0DCE7CF
:1045B00000040240C4E40208B8E40208054B1A698A
:1045C00012F4805FFBD0034A538B9BB243F4807399
:1045D0005383FEE700040240054B1A6912F4805F22
:1045E000FBD0034A538B9BB243F480735383FEE7A3
:1045F00000040240064B1B6913F4805F06D0044A96
:10460000538B9BB243F480735383FEE7704700BF24
:104610000004024008B50648FCF748F818B1044801
:1046200008F0F4FF08BD024804F0B4F808BD00BF6C
:10463000F002012008B503F021F908BD08B541607A
:10464000006191420AD8D21A83699A4211D2011D9F
:104650000A4B186802F06EFC002008BD9A4201D295
:10466000994208D2011D054B586802F063FC0020F6
:1046700008BD012008BD012008BD00BF7CD7002077
:1046800070B503F04BFF134B9B68FBB9114C04F161
:104690000C06304602F032FC04F12005284602F0F8
:1046A0002DFC6660256000220C210A2003F05EFCD0
:1046B000A06040B94FF0F00383F31188BFF36F8F10
:1046C000BFF34F8FFEE7044903F098FE03F048FF65
:1046D00070BD00BF7CD70020D4E4020800B585B0CF
:1046E000FFF7CEFF0D4B9B6863B10023039302934A
:1046F00001930B2200924FF400720949094800F01F
:104700001FFA40B94FF0F00383F31188BFF36F8FA6
:10471000BFF34F8FFEE705B05DF804FB7CD70020A8
:10472000DCE4020861480008C1B12DE9F0410F4600
:104730001D46164680462820FBF750FD0446B0B1C2
:10474000FFF79EFFC4F80080A761E6612562069B23
:104750006362201D02F0DEFB09E0FEE74FF0F0038C
:1047600083F31188BFF36F8FBFF34F8FF5E72046B8
:10477000BDE8F08130B585B0104CA568D5B11C46B8
:1047800001910292039005290DDC00F013FE02282E
:104790004FF000030CBF089A1A4601A90748806829
:1047A00003F018FC07E00023224601A9284603F085
:1047B000FFFC00E0002005B030BD00BF7CD700202A
:1047C0002DE9F04782B0074600F042FB0646234B36
:1047D0005B6B98423AD22BE0DB68D3F800A0DC6830
:1047E00004F10409484602F0BFFB636A204698477B
:1047F000E369012B1FD1A36953449A4506D2636034
:1048000024614946686802F095FB14E0CDF8008009
:104810004346524641462046FFF7ACFF58B94FF099
:10482000F00383F31188BFF36F8FBFF34F8FFEE761
:104830000A4D4FF000086B681A68002ACCD1074A6D
:1048400011685160136001233B6001E000233B606D
:10485000024B5E63304602B0BDE8F0877CD7002093
:104860002DE9F04387B05D4C0026DFF87481636862
:104870001A68002A00F0A880DB681F6800F0DEFAE2
:1048800003A8FFF79DFF0546039B002B40D18742FD
:104890002ED800F067FB6368DB68D3F80C9009F151
:1048A000040002F061FBD9F81C30012B1AD1D9F8B1
:1048B00018103B462A4639444846FFF7BFFE0128F8
:1048C00010D1009633463A4631464846FFF752FF2C
:1048D00040B94FF0F00383F31188BFF36F8FBFF33C
:1048E0004F8FFEE7D9F824304846984712E0374604
:1048F000791BA06803F09CFD00F034FB50B94FF029
:104900008053C8F80030BFF34F8FBFF36F8F01E0C3
:1049100000F028FB03AD4EE0039B002B4BDB059F13
:104920007B6913B1381D02F01FFB02A8FFF748FF97
:10493000039B092B3FD8DFE803F00505053E283B24
:1049400005053E2804990B460246B86901443846DD
:10495000FFF774FE01282ED17B6A38469847FB6921
:10496000012B28D1BA690096334604990A4431468E
:104970003846FFF7FFFEF0B94FF0F00383F31188DC
:10498000BFF36F8FBFF34F8FFEE70499B96141B951
:104990004FF0F00383F31188BFF36F8FBFF34F8F96
:1049A000FEE70346024601443846FFF747FE02E0B1
:1049B0003846FBF7AFFC334632462946A06803F081
:1049C0005BFC0028A8D152E700F038FA03A8FFF7F3
:1049D000F7FE0546039B002B89D099E77CD7002082
:1049E00004ED00E0002070470020704700B583B060
:1049F00031238DF8043000238DF805308DF8063012
:104A000001238DF8073001A805F024FF07F0C6FD4B
:104A1000003018BF0120404203B05DF804FB00BF26
:104A200038B50C46154607F0DDFC50B94FF400735D
:104A30002B60054A936CD26C5B0A43EAC253236035
:104A400000E0FF2040B238BD980D002008B50A4BA9
:104A500093F90030002B04DA07F0A0FD0022064B8A
:104A60001A7007F0BFFC18B1FF20034B187000E06C
:104A7000002040B208BD00BFB4D7002000B583B00D
:104A800001934FF4007300930023084607F010F8D9
:104A900020B907F0A7FC0028FBD100E0FF2040B2BE
:104AA00003B05DF804FB00BF00B583B001934FF481
:104AB000007300930023084607F0A4F920B907F01B
:104AC00091FC0028FBD100E0FF2040B203B05DF86C
:104AD00004FB00BF084B9B6A1B6823B94FF0FF32F1
:104AE000064B1A607047044B9B6ADB68DB685A68A8
:104AF000024B1A60704700BFBCD70020F8000020AE
:104B000010B50D4BDA6A50601B6B984206D20A4B07
:104B1000586BD96A043102F00DFA10BD0446064BF9
:104B2000986AD96A043102F005FA044B1B689C426A
:104B30003CBF024B1C6010BDBCD70020F800002019
:104B40002DE9F04F83B00C9FDDF834B00E9D40B9D5
:104B50004FF0F00383F31188BFF36F8FBFF34F8FD4
:104B6000FEE70B2F08D94FF0F00383F31188BFF352
:104B70006F8FBFF34F8FFEE70190994690460E4628
:104B800035B99000FBF72AFB0546002800F0B680F7
:104B90005420FBF723FB044668B1056308F180430A
:104BA000013B05EB830525F00705337880F83430A9
:104BB000337823B90FE02846FBF7ACFB9EE0334681
:104BC00000F134020F3613F8011F02F8011F1978A3
:104BD00009B1B342F7D14FF0000884F843803E4654
:104BE0000B2F28BF0B26E6626664C4F8488004F1E8
:104BF000040A504602F08EF904F1180002F08AF916
:104C00002461C6F10C06A6616462C4F84C8084F885
:104C100050804A460199284603F05CFC2060BBF1B5
:104C2000000F01D0CBF8004003F078FC364B9A6BB4
:104C300001329A63DB6A4BBB334BDC629B6B012B0B
:104C40002FD1314B03F13C0603F59675304602F047
:104C500055F91436AE42F9D12B4D05F596784046FC
:104C600002F04CF905F5A076304602F047F905F15F
:104C7000140002F043F905F5AA7002F03FF9284646
:104C800002F03CF9C5F828806E630AE01E4BD3F8A9
:104C9000683133B91C4BDB6ADB6A9F4224BF1A4B75
:104CA000DC62194DD5F86C310133C5F86C31E36A1B
:104CB00016484268012199400A43426005F13C00D0
:104CC00003EB8303514600EB830002F027F903F066
:104CD00047FCD5F868316BB1EB6ADB6A9F420BD9B0
:104CE0004FF080520A4B1A60BFF34F8FBFF36F8FA4
:104CF000012005E0012003E0012001E04FF0FF303A
:104D000003B0BDE8F08F00BFBCD70020F800002042
:104D100004ED00E070B5044603F000FC0CB9284B2C
:104D2000DC6A261D304602F01FF970B9E16A01EB1A
:104D30008102234B03EB8203DB6B33B921484368C9
:104D400001228A4023EA02034360A36A1BB104F1F3
:104D5000180002F009F91A4D314605F5AA7002F063
:104D6000DDF8D5F870310133C5F87031D5F86C3104
:104D70000133C5F86C3103F0F3FBD5F86831EBB1C2
:104D8000EB6A9C4214D1D5F8743143B14FF0F00373
:104D900083F31188BFF36F8FBFF34F8FFEE74FF0A0
:104DA0008052094B1A60BFF34F8FBFF36F8F70BDF6
:104DB00003F0B4FBFFF78EFE03F0D2FB70BD00BF23
:104DC000BCD70020F800002004ED00E000B585B05D
:104DD0000023039302930193012200924FF4007287
:104DE00013491448FFF7ACFE012814D1FFF776FCF5
:104DF000012810D14FF0F00383F31188BFF36F8FB8
:104E0000BFF34F8F0C4B0122C3F8682100221A63B5
:104E100003F01AFC09E040B94FF0F00383F3118866
:104E2000BFF36F8FBFF34F8FFEE705B05DF804FB54
:104E300008E50208D1500008BCD70020034AD2F888
:104E400074310133C2F87431704700BFBCD7002001
:104E5000014B186B704700BFBCD700202DE9F0470D
:104E60003E4BD3F87431002B67D13C4B1A6B0132A7
:104E70001A631F6BBFB99B6A1B6843B14FF0F00305
:104E800083F31188BFF36F8FBFF34F8FFEE7334B70
:104E90009A6A596B99625A63D3F878210132C3F840
:104EA0007821FFF717FE2E4B1B689F4201D200248A
:104EB00037E00024294EDFF8A88006F13C0AB36AE7
:104EC0001B6823B94FF0FF32254B1A6029E0B36A03
:104ED000DB68DD686B689F4202D2214A136020E0E4
:104EE00005F10409484602F03FF8AB6A1BB105F131
:104EF000180002F039F8E86AD8F80430012282403C
:104F00001343C8F8043000EB800049460AEB8000E8
:104F100002F004F8F36AEA6ADB6A9A4228BF0124C5
:104F2000CDE70E4BDA6AD26A02EB820203EB820310
:104F3000DB6B022B28BF012406E0084AD2F87C3143
:104F40000133C2F87C310024044BD3F88031002BAC
:104F50000CBF20460120BDE8F08700BFBCD7002071
:104F6000F80000203A4BD3F8743143B94FF0F00306
:104F700083F31188BFF36F8FBFF34F8FFEE72DE9E7
:104F8000F04103F0CBFA324BD3F87421013AC3F865
:104F90007421D3F87431002B52D12D4B9B6B0BBB7A
:104FA000002450E0236ADD6805F1180001F0DCFF01
:104FB0002F1D384601F0D8FFE86A7368012282404D
:104FC0001343736000EB8000394608EB800001F06A
:104FD000A5FFE36AEA6ADB6A9A4207D30123C4F8B1
:104FE000803103E01A4C1B4E04F13C086369002B2E
:104FF000D8D1174BD3F87C319BB1154BD3F87C310A
:105000007BB1134C0125FFF729FF08B1C4F880518B
:10501000D4F87C31013BC4F87C31D4F87C31002BCE
:10502000F1D10B4BD3F88031012B0BD14FF08052D3
:10503000094B1A60BFF34F8FBFF36F8F012402E05B
:10504000002400E0002403F08BFA2046BDE8F08144
:10505000BCD70020F800002004ED00E010B538B304
:105060000446184BD3F8743143B14FF0F00383F387
:105070001188BFF36F8FBFF34F8FFEE7FFF7DEFEA0
:10508000104B1A6B1444D86A043001F06DFF48B914
:105090000C4BDA6A0C494B68D06A0122824023EA41
:1050A00002034B602046FFF72BFDFFF75BFF38B98B
:1050B0004FF08052054B1A60BFF34F8FBFF36F8FD5
:1050C00010BD00BFBCD70020F800002004ED00E0B8
:1050D00008B5144C1EE0FFF7B1FED4F85451FFF7A9
:1050E00041FFBDB103F01AFAD4F86031DD68281D24
:1050F00001F03AFFA36B013BA363D4F87031013B8D
:10510000C4F8703103F02CFA286BFBF703F928463A
:10511000FBF700F9D4F87031002BDCD1FFF7D6F89B
:10512000F8E700BFBCD70020204BD3F8743123B17F
:1051300001221E4BC3F8802170471C4A0023C2F88D
:1051400080311B4B5B68B3FA83F3DBB2C3F11F03FF
:1051500003EB830102EB8102D26B42B94FF0F00303
:1051600083F31188BFF36F8FBFF34F8FFEE710B447
:105170000E4A9900C81802EB8000046C646804644D
:1051800002464432944206D1606803EB8301074A29
:1051900002EB81021064054A03EB830302EB8303F5
:1051A0001B6CDB68D3625DF8044B7047BCD70020F2
:1051B000F800002038B540B94FF0F00383F31188B0
:1051C000BFF36F8FBFF34F8FFEE70C46104DE96AB8
:1051D000183101F0AFFEE86A043001F0C5FE40B9B5
:1051E000EA6A0C494B68D06A0122824023EA020332
:1051F0004B60B4F1FF3F05D10548C16A043101F0AD
:105200008DFE38BD024B186B2044FFF779FC38BD8A
:10521000BCD70020F800002038B540B94FF0F003AB
:1052200083F31188BFF36F8FBFF34F8FFEE70C46F8
:105230000C4DE96A183101F071FEE86A043001F0A2
:1052400093FE40B9EA6A08494B68D06A012282405D
:1052500023EA02034B60034B186B2044FFF750FC1A
:1052600038BD00BFBCD70020F800002038B5C368A7
:10527000DC6844B94FF0F00383F31188BFF36F8FFC
:10528000BFF34F8FFEE704F11805284601F06CFECE
:10529000134BD3F874319BB9251D284601F064FEE9
:1052A000E06A10494B680122824013434B6000EBD7
:1052B000800029460C4B03EB800001F02FFE03E039
:1052C00029460A4801F02AFE054BDB6AE26ADB6ADE
:1052D0009A4283BF0120024BC3F88001002038BDF1
:1052E000BCD70020F8000020F8D70020D0D700203D
:1052F00040B94FF0F00383F31188BFF36F8FBFF312
:105300004F8FFEE7034AD2F878110160126B4260BA
:10531000704700BFBCD7002038B540B94FF0F0034C
:1053200083F31188BFF36F8FBFF34F8FFEE70446FF
:1053300041B94FF0F00383F31188BFF36F8FBFF3D0
:105340004F8FFEE70D4603F0E9F8124B196B2B68FF
:10535000B3F1FF3F14D00F4AD2F878212068904271
:1053600002D0626891420DD26268881A83420BD9DA
:10537000521A13442B602046FFF7BAFF002404E0C2
:10538000002402E0012400E0012403F0E9F82046B3
:1053900038BD00BFBCD700200122024BC3F88021DA
:1053A000704700BFBCD70020014BD86A704700BFD0
:1053B000BCD70020064BD3F868313BB1044BD3F87F
:1053C0007431002B0CBF0220002070470120704771
:1053D000BCD70020002846D038B50346C26A22490F
:1053E000C96AC96A8A423DD28169002905DB1E4922
:1053F000C96AC96AC1F10C01816102EB82021B49D1
:1054000001EB82025969914228D11D461C1D20469C
:1054100001F0AAFD78B9EA6A02EB8201124B03EBB4
:105420008103DB6B3BB912484368012101FA02F2A8
:1054300023EA020242600C48C36ADB6AEB620C4D4D
:10544000696801229A400A436A603C3003EB830397
:10545000214600EB830001F061FD38BD024AD26AAB
:10546000D26ADA6238BD7047BCD70020F8D7002076
:10547000F800002000284BD038B50346274AD26AEE
:10548000904208D04FF0F00383F31188BFF36F8F81
:10549000BFF34F8FFEE7826C42B94FF0F00383F306
:1054A0001188BFF36F8FBFF34F8FFEE7013A82641D
:1054B000C06A596C88422DD072BB1C461D1D2846FF
:1054C00001F052FD70B9E16A01EB8102134B03EB6D
:1054D0008203DB6B33B91248436801228A4023EA16
:1054E00002034360606CE062C0F10C03A3610C4AEC
:1054F0005368012404FA00F10B43536000EB800071
:105500002946084B03EB800001F008FD204638BD1A
:1055100000207047002038BD002038BDBCD70020D7
:10552000F8000020F8D70020054BDB6A23B1044BBC
:10553000DA6A936C01339364014BD86A704700BFF9
:10554000BCD70020094B1B78094800F8331000EB4A
:10555000C300120242600133DBB2042B02D0034AC3
:10556000137070470022014B1A707047AC1A01206B
:10557000881A012070B582B00E461546934B18600C
:1055800013785A2B00F2A682DFE813F05B00A40226
:10559000A4027800A402A402A402A402A402A40209
:1055A000A402A402A402A402A402A402A402A402CB
:1055B000AB00A402A402A402A402A402A402A402B6
:1055C000D500CB00A402A402D000A402A402A4022D
:1055D000A402EF00A4023601A402A4025F01A40207
:1055E000DD01A402A402A402A4027B02A402A4027C
:1055F000A402A402A402A402A402A402A402A4027B
:10560000A402A402A402A402A402A402A402A4026A
:10561000A402A402A402A402A402A402A402A4025A
:10562000A402A402A402A402A402A402A402A4024A
:10563000A402A402A402A402A402A402A402A4023A
:10564000E200634B9B683BB120220521604B587BF5
:10565000FFF778FFFF246CE25E4B1B689B680846EF
:105660009847044630B13A2202213046FFF76AFFDC
:10567000FF245EE20022584B1A805AE2574B03F196
:105680001201002203F8012F9942FBD1544B7022E2
:105690001A700C22DA71534B1B78534A12789A42D3
:1056A00014D04F49514A12F83300887002EBC302FC
:1056B0005079087312794A730133DBB2042B02D09C
:1056C000484A137002E00022464B1A701222424BE5
:1056D0001A802B79934200F204823F4A13800024FF
:1056E00027E26B7813F0010F40F00182394B1B6801
:1056F00001EBC106DB6903EB860633792A790533B2
:10570000934228BF1346344A1380002B00F0EB81EC
:105710003349013B9BB2F25CCA54002BF9D10024FF
:1057200007E200202C4B1880044602E200202A4B9E
:1057300018800446FDE10823274A138028482C4995
:10574000013B9BB2CA5CC254002BF9D10024F0E1AA
:105750000823214A138022482649013B9BB2CA5C98
:10576000C254002BF9D10024E3E11D4B03F10C01DD
:10577000002203F8012B8B42FBD1164B1B685B68A0
:105780006A4601A930469847044630B13A220221C0
:105790003046FFF7D7FEFF24CBE1114B0822DA7029
:1057A00001994A1E100E1871100C5871120A9A7144
:1057B0000139D97102221A72009A110C5972110A18
:1057C0009972DA720C22044B1A80B2E1A81A0120F5
:1057D0008C2D0120D4000020BE2D0120871D01202A
:1057E000881D0120841A0120AC1A0120881A01208A
:1057F000400F0308380F0308A749A84B1B685B68D4
:105800000A46043130469847044630B13A22022114
:105810003046FFF797FEFF248BE19F4841684A1E00
:105820009F4B150E1D70150C5D70120A9A70013990
:10583000D9700268110E1971110C5971110A997100
:10584000DA710822974B1A8073E1974B1B78002B73
:105850003ED1964B93F90C30002B07DB202205211B
:10586000924B587BFFF76EFEFF2462E18B4B1B6867
:105870009B680846984730B13A2202213046FFF72C
:1058800061FEFF2455E1A978EA78130443EA016236
:105890006B7913432A7943EA02237F498B60E879C5
:1058A0002A7A42EA0022CA60134449688B4240F2D5
:1058B0002381212205213046FFF744FEFF2438E1F1
:1058C00020220521794B587BFFF73CFEFF2430E175
:1058D0004FF48052734B1A806F4AD468B4F5805FDE
:1058E00028BF4FF4805413686C4909680D69B4FBF4
:1058F000F3F392686A493046A847002806DA112275
:1059000004213046FFF71EFEFF2412E12346644ABD
:1059100081216748006805F0A9F85F4B1A68B4FB5D
:10592000F2F19A680A449A60DA68121BDA606149F7
:105930008B681C1B8C60002A40F0D78003225A4BD6
:105940001A700024F5E0584B1B78002B5BD1574BA5
:1059500093F90C30002B07DA20220521534B587B9A
:10596000FFF7F0FDFF24E4E04C4B1B689B68084602
:10597000984730B13A2202213046FFF7E3FDFF2479
:10598000D7E0464B1B68DB6830469847044630B189
:10599000272202213046FFF7D5FDFF24C9E0A97870
:1059A000EA78130443EA01626B7913432A7943EAE4
:1059B000022339498B60E8792A7A42EA0022CA60D8
:1059C000134449688B4240F2A580212205213046CC
:1059D000FFF7B8FDFF24ACE020220521334B587BB4
:1059E000FFF7B0FDFF24A4E001212F4A1170B3F5A9
:1059F000805F28BF4FF480539BB2294A2C4800682F
:105A000005F006F895E0244AD468B4F5805F28BF15
:105A10004FF480541368214909684D69B4FBF3F3CE
:105A200092681F493046A847002806DA032204215D
:105A30003046FFF787FDFF247BE0174A1368B4FB6D
:105A4000F3F193680B449360D3681B1BD36019492F
:105A50008A68121B8A6033B90021154B186807F059
:105A60004FFC002465E0B3F5805F28BF4FF48053FE
:105A70009BB20B4A01210E48006804F0C9FF0024C4
:105A800057E06B7813F0020F16D024220521304620
:105A9000FFF758FDFF244CE040D90020D40000203F
:105AA000881D0120BE2D0120BC2D01208C2D012040
:105AB000A81A0120AC2D01201F4A918993680B443C
:105AC0005268934231D9212205213046FFF73AFD31
:105AD000FF242EE0202205213046FFF733FDFF246E
